:020000040800F2
:1000000028040020A50E00086F0B0008710B0008E3
:10001000730B0008750B0008770B00080000000048
:10002000000000000000000000000000790B000844
:100030007B0B0008000000007D0B00087F0B000810
:10004000C10E0008C50E0008C90E0008CD0E00083C
:10005000D10E0008D50E0008D90E0008DD0E0008EC
:10006000E10E0008E50E0008E90E0008ED0E00089C
:10007000F10E0008F50E0008F90E0008FD0E00084C
:10008000010F0008050F0008090F0008000000001C
:100090000000000000000000000000000D0F00083C
:1000A000110F0008830B0008150F0008190F000836
:1000B000230C00089B0C00081D0F0008210F0008EE
:1000C000250F0008290F00082D0F0008310F000828
:1000D000350F0008390F00083D0F0008410F0008D8
:1000E000450F0008490F00084D0F000800000000F0
:1000F0000000000000000000000000000000000000
:1001000000000000000000000000000000000000EF
:100110000000000000000000510F0008550F00080B
:10012000012200F01F01C04B8A40400943F8202003
:1001300070470901020006D5BC4A00F00F001044C8
:1001400000F8041C7047BA4B1954704730B500F0E2
:1001500007000123C0F10704052C2EBF0F2403FA6A
:1001600004F4641E051D072D34BF0020C01E21406D
:10017000814003FA00F0401E1040084330BDAD49F5
:1001800081B00A6802430A6009680840009000983C
:1001900001B07047F8B586B000F076F900F012F9BA
:1001A00010220021684600F07AF9A34CA34D206884
:1001B000A34E40F0200020604FF44877216801F002
:1001C000200104910498216841F004012160226813
:1001D00002F0040204920498216841F008012160B1
:1001E000FC21226802F008020492002204982846AA
:1001F00000F027FAFC2100910122019200210291D6
:10020000022203926946284600F054F94FF4E04078
:1002100000210090019101220292694689488A4D8D
:1002200000F048F91422002101A800F038F92068F4
:1002300040F40060206000222168844C01F40061D9
:100240000091002100983068C0F30220FFF77EFF84
:1002500001461920FFF76DFF1920FFF761FF6320AA
:100260000021ADF80400029104918DF81410039759
:1002700001A9204600F004FA206820F080002060E8
:100280001422A0682840A060616821F070016160BC
:100290000021A06820F08000A060684600F0FFF810
:1002A0000120FFF76CFF00F087F801461C20FFF7E4
:1002B00040FF1C20FFF734FF6321ADF8001000223F
:1002C00001920392029769464FF0804000F0D8F9FE
:1002D0004FF08047386820F0800038601422B968F9
:1002E0002940B9600021786820F070007860B86813
:1002F00020F08000B860684600F0D1F80220FFF7D7
:100300003EFF00F059F801461D20FFF712FF1D20A7
:10031000FFF706FF41F63F71ADF80010002264219F
:100320000291019203926946494E304600F0A8F9C5
:10033000306820F080003060B1680D40B5607068B2
:1003400020F070007060B06820F08000B06000F0B5
:10035000DDFA00F064FA0221022000F083FA00BF07
:1003600045A000F0B5FA3B493B4B05200880002230
:100370003A491A8000203A4B0880052239491A80F0
:100380000880394B1880E06840F00100E060216887
:1003900041F001012160F86840F00100F86039681F
:1003A00041F001013960F06840F00100F06031680F
:1003B00041F001013160FEE7306800220021C0F306
:1003C0000220C3E610B52948016821F0F80141F088
:1003D00080010160026842F0010202600168890741
:1003E000FCD5426822F0F0024260416821F4E061ED
:1003F0004160416821F46051416041688908890089
:100400004160416811F00C0FFBD1194C204600F0FF
:10041000AFFA1848016841F0040101602046BDE8C8
:10042000104000F0B1BA000000E100E018ED00E07B
:1004300000E400E01C1002401810024000080140D7
:100440000CED00E0000C0140F8BFFFFF002C014064
:1004500000040040140000201600002018000020B6
:100460001A0000201C0000201E0000200010024086
:1004700000127A0010E000E053454D455354524FAE
:10048000564159410000000080B5032000F091FA68
:10049000002000F0D7FA00F0F5FA002002BD10B5F8
:1004A000044610460A460146204600F00DFB204651
:1004B00010BD00002DE9F847824600208646634AB9
:1004C000634BDFF890814FF00F0901240F6804FAA5
:1004D0000EF63740B74240F0A6804C683CB3012C82
:1004E0001AD0022C1DD0032C2ED0112C16D0122C79
:1004F0001AD0594DAC421CBF584DAC4217D0584D84
:10050000AC421CBF574DAC4211D0574DAC421CBF42
:10051000564DAC420BD018E0C86816E0C868001D04
:1005200013E0C868083010E0C8680C300DE0886837
:1005300008B9042009E0012819BF0820CAF814608E
:100540000820CAF8106000E00020B7F5807F03D2D1
:10055000D4464FEA8E0404E0AEF108040AF1040C1C
:10056000A400DCF8005009FA04F6B54300FA04F4DC
:100570002C43CCF800404C68E40054D5D8F8004037
:1005800044F00104C8F800404FEA9E0CD8F800403F
:1005900004F001040094009C53F82C604FEA8E0490
:1005A00004F00C0409FA04F526EA0505304EB245BC
:1005B00008BF00260ED02F4EB24508BF012609D035
:1005C0002D4EB24508BF022604D02C4EB2450CBFBA
:1005D0000326042606FA04F42C4343F82C40FE4379
:1005E0004C68E50303D514683C43146002E01568C9
:1005F000354015604C68A50354684CBF3C433440FB
:1006000054604C68E50294684CBF3C4334409460AD
:100610004C68A50203D5D4682743D76003E0D768A8
:1006200006EA0704D4600EF1010EBEF10F0F7FF64B
:100630004CAFBDE8F1878068084018BF0120C0B208
:10064000704702B9090401617047000000040140CD
:1006500008000140181002400000111000001210A4
:1006600000002110000022100000311000003210A4
:1006700000080140000C014000100140001401403E
:10068000F0B5DFF878E00368214C204D1E4E1D4F79
:10069000DFF86CC0704518BFB0F1804F03D06045E3
:1006A00018BFB84209D14A6823F07003134370455C
:1006B0001CBFB0F1804F604507D0B84218BFB042B0
:1006C00003D0A84218BFA04203D1CA6823F44073E4
:1006D0001343036070458A68C26218BFB0420A883B
:1006E000826203D0A84218BFA04201D1097C0163F5
:1006F000416941F0010141610120F0BD002C014040
:100700000004004000080040004001400044014057
:100710000048014001B400996A4A6B481368B3FB72
:10072000F0F04143009102E00098401E00900098D4
:100730000028F9D101B0704710B5644C216841F030
:10074000080121600120FFF7E5FF216821F0080181
:10075000216010BD02065D4904D50B6843F080039B
:100760000B6003E00A6822F080020A60420604D5AA
:100770000B6843F040030B6003E00A6822F040027C
:100780000A60820604D50B6843F020030B6003E087
:100790000A6822F020020A60C00600D526E02AE09E
:1007A00002074A4904D50B6843F080030B6003E05D
:1007B0000A6822F080020A60420704D50B6843F001
:1007C00040030B6003E00A6822F040020A608207DF
:1007D00004D50B6843F020030B6003E00A6822F0A5
:1007E00020020A60C00700D500E004E00A6842F079
:1007F00010020A607047086820F010000860704717
:1008000010B50446FFF7A6FFFFF796FF2046FFF757
:10081000C7FFFFF791FFBDE8104005207AE780B5DC
:1008200000F00CF8012003E080B500F007F802208A
:10083000FFF7E6FFBDE80240C8206BE723480168E8
:1008400021F004010160704720490A6822F0040287
:100850003C280A6002D03E2802D07047102000E0F9
:100860001420CDE7194A1368401E23F0040304281E
:10087000136013D8DFE800F00306090C0F0041F005
:1008800080000AE041F0C00007E041F0900004E081
:1008900041F0D00001E041F04000B1E770470B4962
:1008A0000A6822F004020A60AAE780B507490A68CC
:1008B00042F004020A60FFF7A3FFBDE802400120F6
:1008C00028E700000C00002040420F000C08014007
:1008D00038B505460BE0FFF7E8FF07E00928FAD135
:1008E00004243E20FFF7B0FF641EFAD16D1C287867
:1008F00058B10A2804D100210220FFF7B3FFF5E721
:100900000D28EBD1FFF790FFF0E731BD80B5302027
:10091000FFF776FF4FF4C870FFF7FCFE3020FFF7BB
:100920006FFF4FF4C870FFF7F5FEFFF787FF282031
:10093000FFF710FFFFF700FF0520FFF7EBFEFFF7C3
:10094000FBFE0520FFF7E6FE2820FFF729FFFFF753
:10095000F3FE0520FFF7DEFE0C20FFF7A0FF0620C8
:10096000FFF79DFFFFF75BFFBDE801405CE700007C
:100970004FF47A720649B0FBF2F0401E4860002343
:100980008B600520086070470249086070470000CE
:1009900010E000E00C0000200901020006D5244A06
:1009A00000F00F00104400F8041C7047214B19544C
:1009B0007047214B19684FF6FF020002114000F406
:1009C000E06008431D4908431860704770B51A4B32
:1009D0001C68C4F302230124C3F10705052D2EBFB3
:1009E0000F2504FA05F56D1E1E1D072E34BF0023CA
:1009F000DB1E2940994004FA03F3BDE870405B1EFA
:100A00001A401143C8E710B5401EB0F1807F01D3F2
:100A1000012010BD0A4C60600F214FF0FF30FFF73E
:100A2000BBFF0021A16007202060002010BD000056
:100A300018ED00E000E400E00CED00E00000FA0535
:100A400010E000E038B50D4D0D4B2A7804464FF408
:100A50007A711868B1FBF2F2B0FBF2F0FFF7D3FF46
:100A600050B9102C08D2002221464FF0FF30FFF77A
:100A7000ADFFAC60002032BD012032BD000000207F
:100A80000C0000200E4881B0016841F001010160B6
:100A9000026802F0010200920099426842F080521E
:100AA0004260406800F0805000900098054801685E
:100AB00021F0E06141F00071016001B0704700BFBA
:100AC000181002400400014062F30F2262F31F423B
:100AD000401810F0030308D0C91A1FD3DB0748BF22
:100AE00000F8012D28BF20F8022D130030B4144661
:100AF0001546103928BF20E93C00FAD8490728BF1D
:100B000020E90C0048BF40F8042D890028BF20F8D8
:100B1000022D48BF00F8012D30BC7047C91818BF1E
:100B200000F8012DCB0728BF00F8012D7047000009
:100B300009281BD8DFE800F00507090B0D0F11137A
:100B400015177AA010E07AA00EE07AA00CE07AA047
:100B50000AE07AA008E07AA006E07AA004E07AA091
:100B600002E07AA000E07AA0FFF7B2BE70477047BB
:100B7000FEE7FEE7FEE7FEE770477047704700F0CC
:100B800005B970B5744B754C754E6FF001021A6063
:100B900000210120FFF766FE20880A2190FBF1F07A
:100BA000FFF7C6FF20880A210A2400F035F869A55E
:100BB00000F02AF800F02BF830886A4E00F02BF88D
:100BC00000F022F868480088FFF7B2FF09210120F1
:100BD000FFF748FE00F01BF83088644E00F01BF869
:100BE00000F012F800F013F830880A2190FBF1F1C0
:100BF00004FB11042046FFF79BFF00F005F85C485A
:100C00000088BDE8704093E72846FFF761BE308852
:100C100090FBF4F08CE70A2190FBF1F104FB11004A
:100C200086E7F8B55349544F544C554D6FF00100C9
:100C300008604FF480513846FFF7FDFC20B9288842
:100C4000012829D100210AE04FF400513846FFF76E
:100C5000F2FC4C4E28B9308801281DD101212170A9
:100C6000F1BD4FF480413846FFF7E5FCA0B9022002
:100C70003A4A207005213A48118000233A4A0380FD
:100C80000021384811800523384A038011803848F4
:100C90000180012129803180F1BD70B53A48374A81
:100CA0006FF0010101600160107810B1012815D0CA
:100CB00070BD334B1988012936D12B4C2088002870
:100CC0002FD1264E264D3088002804BF29880029C0
:100CD00019D12088B8B91980012312E0294B18884E
:100CE000012821D1224C2088D8B91E4E1F4D3088B2
:100CF000002804BF2988002905D1208818B9198047
:100D00000023137070BD09222280288828B93B2156
:100D100029803088421E328070BD2988481E288074
:100D200070BD2288511E218070BD0000300000007F
:100D300031000000320000003300000034000000E9
:100D400035000000360000003700000038000000C9
:100D5000390000003A000000102C0140140000206F
:100D6000160000201A000020180000201C0000209F
:100D70001E00002010000040000C01402000002058
:100D800010000020120000201004004002494A68B0
:100D9000087882184A6070470000002010B50F4A9A
:100DA0000F49106840F00100106053680D480B4077
:100DB0005360146804401460116821F480211160AC
:100DC0004FF41F01506820F4FE0050609160002035
:100DD000D0624FF00061044A116010BD0010024063
:100DE0000000FFF8FFFFF6FE08ED00E030B50168F7
:100DF00084684218416802EB5103C90703D54C448B
:100E000001E0491C05D19A420AD012F9011B12F8DF
:100E1000015B002904F8015BF3D4491EF7D5F2E722
:100E20000C3030BD10B5074979441831064C7C446C
:100E3000163404E00A68081D114488470146A1429F
:100E4000F8D110BD0800000014000000A1FFFFFF52
:100E500008010000260000000000002000F00DF84E
:100E6000002801D0FFF7DEFFAFF300800020AFF3D2
:100E70000080FFF78FF900F002F80120704700F0C2
:100E800001B800000746384600F002F8FBE7000012
:100E900080B5AFF30080024A11001820ABBEFBE71B
:100EA0002600020001488047014800479D0D0008C8
:100EB000B50E0008AFF30080AFF30080FFF7CEFF60
:100EC000FFF7FEBFFFF7FEBFFFF7FEBFFFF7FEBF56
:100ED000FFF7FEBFFFF7FEBFFFF7FEBFFFF7FEBF46
:100EE000FFF7FEBFFFF7FEBFFFF7FEBFFFF7FEBF36
:100EF000FFF7FEBFFFF7FEBFFFF7FEBFFFF7FEBF26
:100F0000FFF7FEBFFFF7FEBFFFF7FEBFFFF7FEBF15
:100F1000FFF7FEBFFFF7FEBFFFF7FEBFFFF7FEBF05
:100F2000FFF7FEBFFFF7FEBFFFF7FEBFFFF7FEBFF5
:100F3000FFF7FEBFFFF7FEBFFFF7FEBFFFF7FEBFE5
:100F4000FFF7FEBFFFF7FEBFFFF7FEBFFFF7FEBFD5
:100F5000FFF7FEBFFFF7FEBF0001F9000010FC0025
:0B0F600005366E01010001F3000002E5
:0400000508000EB52C
:00000001FF
