:020000040800F2
:1000000068040020650F00083D0F00083F0F00083E
:10001000410F0008430F0008450F000800000000D2
:10002000000000000000000000000000470F000872
:10003000490F0008000000004B0F00084D0F00089A
:10004000990F00089D0F0008A10F0008A50F0008D8
:10005000A90F0008AD0F0008B10F0008B50F000888
:10006000B90F0008BD0F0008C10F0008C50F000838
:10007000C90F0008CD0F0008D10F0008D50F0008E8
:10008000D90F0008DD0F0008E10F0008E50F000898
:10009000E90F0008ED0F0008F10F0008F50F000848
:1000A000F90F0008FD0F00080110000805100008F6
:1000B000510F0008530F0008091000080D10000828
:1000C0001110000815100008191000081D10000874
:1000D0002110000825100008291000082D10000824
:1000E0003110000835100008391000082DE9F843D8
:1000F000040016D02078DFF86064C10713D570685B
:1001000000F00C00042807D0706800F00C000828EC
:1001100041D17068C1033ED53068810303D5606862
:10012000002800F064812078DFF83C74810719D53D
:10013000706810F00C0F07D0706800F00C000828F1
:1001400061D17068C1035ED43068810703D520692E
:10015000012840F04C813168606921F0F80141EAE2
:10016000C00131602178080740F18180A069DFF883
:10017000FC13002800F0A68001220A6000F02AFA91
:100180000546706A810763D400F024FA401B0228F8
:10019000F7D903202EE16068B0F5803F04D13068C4
:1001A00040F48030306014E008B930680AE0B0F5FF
:1001B000A02F306806D140F480203060316841F4CF
:1001C000803105E020F480303060316821F48021F6
:1001D0003160606858B100F0FDF905463068810370
:1001E000A1D400F0F7F9401B6528F7D3D1E700F060
:1001F000F1F905463068810395D500F0EBF9401B15
:100200006528F7D3C5E72069A8B10121396000F05E
:10021000E1F905463068810705D400F0DBF9401BA1
:100220000228F7D9B5E73068616920F0F80040EAA4
:10023000C100306096E7386000F0CCF905463168BF
:1002400088078FD500F0C6F9401B0228F7D9A0E730
:10025000DFF808030168C9084FF47A72B1FBF2F2C3
:10026000009200BF0098411E00280091F9D120782B
:1002700041076ED5F0690025C10009D4F06940F04E
:100280008050F0610125F06900F0805000900098E6
:10029000DFF8DC82D8F80000C10520D4D8F80000CF
:1002A00040F48070C8F8000000F094F98146D8F856
:1002B0000000C10513D400F08DF9A0EB09006528FA
:1002C000F5D366E7086000F085F90546706A810796
:1002D000CDD500F07FF9401B0228F7D959E7E06837
:1002E000012808D008B9306A09E00528306A06D12B
:1002F00040F004003062306A40F0010005E0400840
:1003000040003062306A20F00400306241F28938E7
:10031000E06860B100F05EF98146306A810713D46D
:1003200000F058F9A0EB09004045F6D331E700F0A2
:1003300051F98146306A810706D500F04BF9A0EBF0
:1003400009004045F6D324E71DB1F06920F0805044
:10035000F061E06900284CD0716801F00C010829B7
:1003600038D002282AD100F047F8054630688101CC
:1003700005D500F02FF9401B0228F7D909E7206ABC
:10038000B0F5803F05D17168A06821F400310143C8
:1003900071607268206A616A22F4741202430A432F
:1003A0007260012000F029F804463068810120D4F1
:1003B00000F010F9001B0228F7D9EAE600F01CF85B
:1003C00004463068810114D500F004F9001B0228AE
:1003D000F7D9DEE601280AD07068226A00F480317D
:1003E000914202BF00F47010616A884201D001207E
:1003F00000E00020BDE8F2830020386600F0EAB893
:100400002DE9F041040088464ED05A4E00F077F8AE
:1004100002D200F06FF847D120684F4D810712D506
:10042000400703D5696841F4E061696020780107FD
:1004300003D5686840F4605068606968A06821F07E
:10044000F001014369602178C80725D5606801285B
:1004500002D129688A0303E00228296802D18A01AF
:1004600002D421E08A071FD56968890840EA810023
:10047000686000F0AFF807466868616800F00C003B
:10048000B0EB810F08D000F0A5F8C01B41F2893114
:100490008842F1D303202BE0306800F0070080454C
:1004A00004D200F027F801D0012021E02078410794
:1004B00005D56A68E06822F4E06202436A60217848
:1004C000080706D56968206921F4605141EAC00136
:1004D000696000F019F86A682749204BC2F30312DB
:1004E000895CC84018601F48006800F079F8002057
:1004F000BDE8F0813168C90848EAC101316030685F
:1005000000F00700404570471C4915480A6802F092
:100510000C03082B00D0704710B500BF1AA4C2F31B
:100520008343D203E35C08D5096858431AA3C1F397
:1005300040415A5CB0FBF2F010BD184610494843E8
:1005400010BD06480D4A006813680E49C3F3022225
:10055000FFE7895CC8407047001002400C00002093
:1005600000127A000800002000004242800442424B
:100570000070004000200240980E00080410024065
:1005800000093D00900F0008020304050607080952
:100590000A0B0C0D0E0F1010010230B4002513E0F1
:1005A00050F8042BD30744BFA9F101039A18091F7F
:1005B000042942F8045BFAD213468C0744BF158025
:1005C0009B1CC90748BF1D7050F8041B0029E7D1C8
:1005D00030BC704701484068704700BF00000020F1
:1005E00038B50D4D0D4B2A7804464FF47A711868D2
:1005F000B1FBF2F2B0FBF2F000F049F850B9102C68
:1006000008D2002221464FF0FF3000F023F8AC6002
:10061000002032BD012032BD000000200C0000206F
:100620000901020002D4244881547047234B02F090
:100630000F021A4402F8041C7047214B19684FF648
:10064000FF020002114000F4E06008431D49084326
:100650001860704770B51A4B1C68C4F3022301245C
:10066000C3F10705052D2EBF0F2504FA05F56D1EF4
:100670001E1D072E34BF0023DB1E2940994004FABB
:1006800003F3BDE870405B1E1A401143C8E710B584
:10069000401EB0F1807F01D3012010BD0A4C606084
:1006A0000F214FF0FF30FFF7BBFF0021A1600720B3
:1006B0002060002010BD000000E400E018ED00E024
:1006C0000CED00E00000FA0510E000E00901020076
:1006D00002D4864881547047854B02F00F021A44B9
:1006E00002F8041C704730B500F007000123C0F188
:1006F0000704052C2EBF0F2403FA04F4641E051D05
:10070000072D34BF0020C01E2140814003FA00F0B5
:10071000401E1040084330BD764981B00A6802434C
:100720000A60096808400090009801B07047F8B569
:1007300086B000F039F900F0FBF8102200F019F94A
:100740006D4C6E4D20686E4E6E4F40F02000206064
:10075000216801F0200104910498216841F004010E
:100760002160226802F0040204920498216841F09A
:1007700008012160FC21226802F008020492002294
:100780000498284600F0E2F9FC2100910122019230
:1007900000210291022203926946284600F016F9D0
:1007A0004FF4E0400021009001910122029269463D
:1007B000554800F00BF91422002101A800F0E4F9DB
:1007C000206840F400602060002221684F4C01F452
:1007D0000061009163210098ADF8041002924FF47B
:1007E000487504928DF81420039501A9304600F055
:1007F000D5F9306820F0800030601422B0682040C5
:10080000B060716821F0700171600021B06820F063
:100810008000B06000F0AEF80120FFF77DFF3C4E95
:1008200000F080F801461C20FFF750FF4FF0805188
:10083000396063220023ADF80020019303930295F1
:1008400069464FF0804000F0A9F94FF08040016800
:1008500021F080010160826822408260416821F0BD
:1008600070014160142281682A4D21F0800181606D
:100870006846002100F088F90220FFF74DFF00F0E4
:1008800051F801461D20FFF721FF4FF0005139605C
:1008900041F63F72642100230291ADF800200193DC
:1008A00003936946284600F079F928681A4A20F02F
:1008B000800028600023A9680C40AC606868174974
:1008C00020F070006860A86820F08000A8601448DC
:1008D00042604FF4804201608360C3600261436103
:1008E0008361C361036200F08FF9FEE700E400E07A
:1008F00018ED00E01C1002401810024000080140F2
:10090000002C014000E100E0000C0140F8BFFFFFB7
:100910000CED00E000040040A086010000540040FF
:1009200010000020306800220021C0F30220DAE627
:1009300000B58FB02822002105A800F025F9142267
:1009400000F017F8022101220591099210210022DE
:100950000A910C9205A8FFF7C9FB0F200090002117
:1009600001910291039104916846FFF749FD0FB090
:1009700000BD0021684600F007B930B40EE00268FF
:10098000436802440830DC0744BFA9F10104E318BE
:1009900052F8045B43F8045B091FF9D150F8041BBB
:1009A0000029ECD130BC704780B50748016841F0A0
:1009B000100101600320FFF740FE0020FFF710FE4A
:1009C00000F0C0F9002002BD002002402DE9F847E8
:1009D0004FF0000E00245F4A5F4BDFF880814FF03C
:1009E0000F0982460CE0D7683840D06006E0956079
:1009F0004D68AD02F7D5D0680743D7600EF1010E00
:100A00000F6837FA0EF000F09F80012000FA0EF612
:100A10003740B742F2D1486838B301281AD00228CB
:100A20001DD003282ED0112816D012281AD04C4DD4
:100A3000A8421CBF4B4DA84217D04B4DA8421CBF2B
:100A40004A4DA84211D04A4DA8421CBF494DA84268
:100A50000BD018E0CC6816E0CC68241D13E0CC68FD
:100A6000083410E0CC680C340DE0886808B9042420
:100A700009E0012819BF0824CAF814600824CAF83C
:100A8000106000E00024B7F5807F03D250464FEAA3
:100A90008E0C05E0AEF108050AF104004FEA850C62
:100AA000056809FA0CF6B54304FA0CF635430560FF
:100AB0004868C000A2D5D8F8000040F00100C8F88E
:100AC0000000D8F8005005F0010500954FEA8E05AA
:100AD00000984FEA9E0053F8206005F00C0C09FACC
:100AE0000CF526EA0505244EB24508BF00260ED0B7
:100AF000224EB24508BF012609D0214EB24508BF9B
:100B0000022604D01F4EB2450CBF0326042606FA67
:100B10000CF6354343F82050F8434D68ED03156853
:100B20004CBF3D43054015604D68AD0355684CBF53
:100B30003D43054055604D689668ED024CBF47EA5D
:100B4000060500EA060552E7BDE8F18702B9090487
:100B50000161704700040140080001401810024084
:100B600000001110000012100000211000002210DF
:100B7000000031100000321000080140000C01405C
:100B8000001001400014014010B5044610460A460A
:100B90000146204600F026F9204610BD70B5164EDD
:100BA0000368174C154DB04218BFB0F1804F03D009
:100BB000A84218BFA04209D14A6823F0700313432A
:100BC000B0421CBFB0F1804FA84201D0A04203D177
:100BD000CA6823F4407313430360B0428A68C26258
:100BE0000A88826202D1097C064A1160416941F09B
:100BF00001014161002070BD002C01400004004053
:100C000000080040302C0140F8B504001BD004F16E
:100C10003C05697821B900202870204600F0AFF823
:100C20002421697020680268520852000260FFF7B0
:100C300088FC01466068DFF8F420904205D2DFF8B6
:100C4000F030994205D20120F2BDDFF8E800814280
:100C5000F9D32068DFF8E0304668B1FBF3F3B6095A
:100C600043EA861646602668376A6068904206D373
:100C70004FF4967043434FF47A70B3FBF0F35B1C70
:100C8000BF0943EA87133362491E2368DE69676838
:100C9000974206D27F0000F043F8042913D20421C2
:100CA00011E0A06820B907EB470700F039F805E02C
:100CB0001920474300F034F841F4804108050CBF87
:100CC000012141F40041DFF8740006400E43DE616B
:100CD00022681368E169206A23F0C0030B430343D1
:100CE00013602268DFF85800936821690340E068C8
:100CF0000B43034393602168CA68A3696069120AC1
:100D0000034343EA0222CA602068016841F00101FE
:100D1000016000206860202169702063A870F2BD26
:100D2000B1FBF7F1491CC1F30B017047A18601002B
:100D300080841E0000093D0040420F000030FFFF8C
:100D4000007CFFFF234881B0016841F00101016090
:100D5000026802F0010200920099426842F080525B
:100D60004260406800F08050009000981A48016886
:100D700021F0E06141F00071016001B0704718B5E9
:100D800085B004461022002101A8FFF7FDFE21686E
:100D9000124881421CD10F4C216841F008012160AA
:100DA000C021206800F008000090122200980C4832
:100DB000019102920321049101A9FFF707FE6068E7
:100DC00040F400106060606800F40010009000982B
:100DD00006B010BD1810024004000140005400404D
:100DE000000C014062F30F2262F31F42401810F022
:100DF000030308D0C91A1FD3DB0748BF00F8012D31
:100E000028BF20F8022D130030B4144615461039BF
:100E100028BF20E93C00FAD8490728BF20E90C0088
:100E200048BF40F8042D890028BF20F8022D48BF94
:100E300000F8012D30BC7047C91818BF00F8012D0B
:100E4000CB0728BF00F8012D7047000010B50E4AEF
:100E50000E49106840F00100106053680C480B40C8
:100E60005360146804401460116821F480211160FB
:100E70004FF41F01506820F4FE00506091604FF065
:100E80000060044A106010BD001002400000FFF82E
:100E9000FFFFF6FE08ED00E000000000000000008B
:100EA000010203040607080910B5074979441831FF
:100EB000064C7C44163404E00A68081D1144884737
:100EC0000146A142F8D110BD080000002800000032
:100ED000CBF6FFFF540000001000002000000000CF
:100EE0009BFAFFFF100000008C00000000000020B3
:100EF0000000000000F00DF8002801D0FFF7D4FF3B
:100F0000AFF300800020AFF30080FFF710FC00F08B
:100F100002F80120704700F001B80000074638468B
:100F200000F002F8FBE7000080B5AFF30080024A52
:100F300011001820ABBEFBE7260002007047FEE759
:100F4000FEE7FEE7FEE770477047704700F002B823
:100F50007047704702494A68087882184A607047AB
:100F60000000002001488047014800474D0E00085E
:100F7000850F0008010000000000000010000000C4
:100F80000024F400AFF30080AFF30080FFF7B2FF5E
:100F90000000000001020304FFF7FEBFFFF7FEBFE1
:100FA000FFF7FEBFFFF7FEBFFFF7FEBFFFF7FEBF75
:100FB000FFF7FEBFFFF7FEBFFFF7FEBFFFF7FEBF65
:100FC000FFF7FEBFFFF7FEBFFFF7FEBFFFF7FEBF55
:100FD000FFF7FEBFFFF7FEBFFFF7FEBFFFF7FEBF45
:100FE000FFF7FEBFFFF7FEBFFFF7FEBFFFF7FEBF35
:100FF000FFF7FEBFFFF7FEBFFFF7FEBFFFF7FEBF25
:10100000FFF7FEBFFFF7FEBFFFF7FEBFFFF7FEBF14
:10101000FFF7FEBFFFF7FEBFFFF7FEBFFFF7FEBF04
:10102000FFF7FEBFFFF7FEBFFFF7FEBFFFF7FEBFF4
:0C103000FFF7FEBFFFF7FEBFFFF7FEBF9B
:0400000508000F855B
:00000001FF
