:020000040800F2
:1000000088080020A12600084B2300084D23000883
:100010004F2300085123000853230008000000006C
:100020000000000000000000000000005523000850
:100030005723000800000000592300085B23000834
:10004000C5260008C9260008CD260008D1260008CC
:10005000D5260008D9260008DD260008E12600087C
:10006000E5260008E9260008ED260008F12600082C
:10007000F5260008F9260008FD26000801270008DB
:1000800005270008092700080D2700081127000888
:1000900015270008192700081D2700082127000838
:1000A000252700085F230008292700082D270008BE
:1000B0001D240008A924000831270008352700085E
:1000C000392700083D270008412700084527000878
:1000D000492700084D270008512700085527000828
:1000E000592700085D27000861270008000000006C
:1000F0000000000000000000000000000000000000
:1001000000000000000000000000000000000000EF
:100110000000000C000C000C000C000C000C000C8B
:10012000000C000C000C000C0000000C000C000087
:10013000000000000000001B001B001B001B001B38
:1001400000000000000000000000000000000000AF
:1001500000000000000000000000801980198019D4
:100160008019C07FC07F80190033C07FC07F0033FB
:100170000033003300330000000000000000001EC8
:10018000003F807580650074003C001E00078005FC
:10019000806580658075003F001E0004000400003B
:1001A0000000007000D840D8C0D880D90073000685
:1001B000000C801BC036C066C046C006800300002D
:1001C000000000000000001E003F00330033003339
:1001D000001E000CC03CC066806380618063C03E2E
:1001E000801C0000000000000000000C000C000C4F
:1001F000000C000C000000000000000000000000E7
:10020000000000000000000000000000800000016D
:100210000003000600060004000C000C000C000C9B
:10022000000C000C00040006000600030001800022
:10023000002000100018000C000C0004000600064E
:1002400000060006000600060004000C000C001862
:10025000001000200000000C002D003F001E0033A5
:10026000000000000000000000000000000000008E
:100270000000000000000000000000000000000C72
:10028000000C000C000CC0FFC0FF000C000C000CA8
:10029000000C000000000000000000000000000052
:1002A000000000000000000000000000000000004E
:1002B000000000000000000C000C00040004000816
:1002C000000000000000000000000000000000002E
:1002D0000000001E001E00000000000000000000E2
:1002E000000000000000000000000000000000000E
:1002F0000000000000000000000000000000000CF2
:10030000000C0000000000000000000300030003D8
:100310000006000600060006000C000C000C000C95
:100320000018001800180000000000000000001E67
:10033000003F0033806180618061806D806D8061ED
:10034000806180610033003F001E0000000000005B
:1003500000000006000E001E003600260006000603
:100360000006000600060006000600060006000063
:10037000000000000000001E003F8073806180616B
:10038000800100030006000C001800300060807F30
:10039000807F0000000000000000001C003E0063A1
:1003A00000630003000E000E0003800180018061E5
:1003B0008073003F001E00000000000000000006E7
:1003C000000E000E001E001E0016003600360066ED
:1003D000807F807F0006000600060000000000000D
:1003E0000000007F007F006000600060006E007F02
:1003F00080638001800180618073003F001E0000E7
:10040000000000000000001E003F8033806100609B
:10041000006E007F80738061806180618033003F67
:10042000001E0000000000000000807F807F80012F
:100430000003000300060006000C000C000C00087E
:100440000018001800180000000000000000001E46
:10045000003F8063806180610021001E003F806159
:10046000806180618061003F001E0000000000008C
:100470000000001E003F0073806180618061807316
:10048000803F801D800180610073003F001E0000DE
:100490000000000000000000000000000000000C50
:1004A000000C000000000000000000000000000C34
:1004B000000C000000000000000000000000000030
:1004C00000000000000C000C000000000000000014
:1004D0000000000C000C00040004000800000000F4
:1004E0000000000080008003000E0038006000382B
:1004F000000E8003800000000000000000000000EB
:1005000000000000000000000000807F807F0000ED
:100510000000807F807F00000000000000000000DD
:10052000000000000000000000000000004000701B
:10053000001C000780010007001C00700040000044
:1005400000000000000000000000001F803FC0719C
:10055000C060C000C00180030007000E000C000C4A
:100560000000000C000C0000000000000000001E55
:10057000003F803180718063806F806D806D806FFF
:10058000806700600032003E001C00000000000098
:100590000000000E000E001B001B001B001B803122
:1005A0008031803F803F8031C060C060C06000000B
:1005B000000000000000007C007E00630063006318
:1005C0000063007E007E0063806180618063007F45
:1005D000007E0000000000000000001E003F80318F
:1005E0008061006000600060006000600060806109
:1005F0008031003F001E0000000000000000007C71
:10060000007F0063806380618061806180618061C0
:10061000806100630063007E007C00000000000039
:100620000000807F807F0060006000600060007FCD
:10063000007F0060006000600060807F807F0000BD
:10064000000000000000807F807F0060006000608C
:100650000060007F007F006000600060006000605C
:1006600000600000000000000000001E003F80311C
:1006700080610060006000608063806380618061F1
:100680008031803F001E00000000000000008061FB
:1006900080618061806180618061807F807F806116
:1006A00080618061806180618061000000000000E5
:1006B0000000003F003F000C000C000C000C000C80
:1006C000000C000C000C000C000C003F003F000070
:1006D0000000000000008001800180018001800195
:1006E0008001800180018001806180618073003F12
:1006F000001E0000000000000000C0608061006378
:1007000000660066006C0078007C0066006600638E
:1007100080618061C0600000000000000000006097
:1007200000600060006000600060006000600060C9
:10073000006000600060807F807F0000000000009B
:100740000000C071C071C07BC07AC06AC06AC06E50
:10075000C064C060C060C060C060C060C0600000B5
:1007600000000000000080718071807980798079BC
:10077000806D806D806D8065806780678067806335
:1007800080630000000000000000001E003F0033F6
:100790008061806180618061806180618061806151
:1007A0000033003F001E0000000000000000007E3B
:1007B000007F80638061806180618063007F007E54
:1007C0000060006000600060006000000000000049
:1007D0000000001E003F0033806180618061806105
:1007E00080618061806580670033803F401E00002B
:1007F000000000000000007E007F80638061806157
:100800008063007F007E006600630063806180611A
:10081000C0600000000000000000000E001F8031DA
:10082000803100300038001E000780038061806145
:100830008031003F001E0000000000000000C0FFEB
:10084000C0FF000C000C000C000C000C000C000C95
:10085000000C000C000C000C000C0000000000005C
:100860000000806180618061806180618061806161
:1008700080618061806180618073003F001E0000A4
:10088000000000000000C060C060C06080318031A6
:100890008031001B001B001B001B000E000E000E11
:1008A00000040000000000000000C0C0C0C0C0C0C4
:1008B000C0C0C0C0C0CC804C804C805E8052805292
:1008C0008073806180610000000000000000C0C0F3
:1008D000806080610033003B001E000C000C001E95
:1008E000001F003B80718061C0C00000000000005C
:1008F0000000C0C08061806100330033001E001E14
:10090000000C000C000C000C000C000C000C000093
:10091000000000000000803F803F800100030003D2
:100920000006000C000C0018001800300060807FEA
:10093000807F000000000000000F000F000C000C82
:10094000000C000C000C000C000C000C000C000C47
:10095000000C000C000C000C000F000F0000001831
:1009600000180018000C000C000C000C000600061B
:100970000006000600030003000300000000000062
:10098000001E001E00060006000600060006000607
:100990000006000600060006000600060006000627
:1009A000001E001E0000000C000C001E0012003390
:1009B0000033806180610000000000000000000042
:1009C0000000000000000000000000000000000027
:1009D0000000000000000000000000000000000017
:1009E0000000000000000000E0FF000000000038F0
:1009F0000018000C000000000000000000000000D3
:100A000000000000000000000000000000000000E6
:100A100000000000000000000000001F803F806117
:100A20008001801F803F80618063807FC03800002C
:100A30000000000000000060006000600060006EC8
:100A4000007F807380618061806180618073007F3E
:100A5000006E000000000000000000000000000028
:100A60000000001E003F80738061006000608061B4
:100A70008073003F001E00000000000000008001A5
:100A8000800180018001801D803F807380618061D2
:100A9000806180618073803F801D00000000000045
:100AA00000000000000000000000001E003F007376
:100AB0008061807F807F00608071003F001E0000A9
:100AC000000000000000C007C00F000C000C807F79
:100AD000807F000C000C000C000C000C000C000CC3
:100AE000000C0000000000000000000000000000FA
:100AF000801D803F80738061806180618061807330
:100B0000803F801D80018063007F003E0000006008
:100B1000006000600060006F807F80718061806194
:100B20008061806180618061806100000000000060
:100B300000000006000600000000003E003E000627
:100B4000000600060006000600060006000600007B
:100B5000000000000006000600000000003E003E0D
:100B60000006000600060006000600060006000655
:100B700000060046007E003C00000060006000604F
:100B80000060806100630066006C007C007600639A
:100B900000638061C0600000000000000000003EB3
:100BA000003E0006000600060006000600060006DD
:100BB0000006000600060006000600000000000017
:100BC0000000000000000000000080DDC0FFC0CE7B
:100BD000C0CCC0CCC0CCC0CCC0CCC0CCC0CC000041
:100BE0000000000000000000000000000000006F96
:100BF000807F8071806180618061806180618061BF
:100C00008061000000000000000000000000000003
:100C10000000001E003F8073806180618061806100
:100C20008073003F001E0000000000000000000074
:100C300000000000006E007F807380618061806131
:100C400080618073007F006E006000600060006063
:100C50000000000000000000801D803F8073806164
:100C60008061806180618073803F801D8001800190
:100C7000800180010000000000000000000000670B
:100C8000803F00390030003000300030003000304C
:100C90000030000000000000000000000000000024
:100CA0000000001E803F80610060007F803F800167
:100CB0008061007F001E00000000000000000000B6
:100CC000000800180018007F007F001800180018A6
:100CD000001800180018801F800F0000000000009E
:100CE0000000000000000000000080618061806161
:100CF00080618061806180618063807F803D0000D1
:100D00000000000000000000000000000000C060C3
:100D1000803180318031001B001B001B000E000E53
:100D200000060000000000000000000000000000BD
:100D3000000080DD80DD80DD005500550055007726
:100D400000770022002200000000000000000000E8
:100D5000000000000000806100330033001E000C22
:100D6000000C001E00330033806100000000000012
:100D700000000000000000008061806180310033CD
:100D80000033001B001B001B000E000E000E001C99
:100D9000007C007000000000000000000000C07F28
:100DA000C07F800100030006000C00180030C07FE7
:100DB000C07F0000000000008003800700060006DE
:100DC000000600060006000E001C001C000E0006B7
:100DD00000060006000600068007800300060006E5
:100DE00000060006000600060006000600060006D3
:100DF00000060006000600060006000600060006C3
:100E00000038003C000C000C000C000C000C000E24
:100E100000070007000E000C000C000C000C000C7A
:100E2000003C00380000000000000000000000004E
:100E300000008038807F00470000000000000000B4
:100E40000000000000000000F8B504001BD004F111
:100E50003C05697821B900202870204600F0A5FAE9
:100E6000242169702068026852085200026000F074
:100E7000FAFC01466068DFF81422904205D2DFF8E0
:100E80001032994205D20120F2BDDFF808028142FA
:100E9000F9D32068DFF800324668B1FBF3F3B609F6
:100EA00043EA861646602668376A6068904206D331
:100EB0004FF4967043434FF47A70B3FBF0F35B1C2E
:100EC000BF0943EA87133362491E2368DE696768F6
:100ED000974206D27F0000F043F8042913D2042180
:100EE00011E0A06820B907EB470700F039F805E0EA
:100EF0001920474300F034F841F4804108050CBF45
:100F0000012141F40041DFF8940106400E43DE6107
:100F100022681368E169206A23F0C0030B4303438E
:100F200013602268DFF87801936821690340E06864
:100F30000B43034393602168CA68A3696069120A7E
:100F4000034343EA0222CA602068016841F00101BC
:100F5000016000206860202169702063A870F2BDE4
:100F6000B1FBF7F1491CC1F30B0170474146204624
:100F700000F083B9308D7262411E3185708D411E43
:100F8000718570472DE9FC4700F08CF800F090F86F
:100F90005DD100F074F8002859D13878012856D076
:100FA00000F067F801D400F0A0F84146D6F800E060
:100FB0000C9D0B98DDF828C0DEF8008028F400684E
:100FC000CEF800804FF0210E87F801E04FF0400886
:100FD00087F802804FF0000EC7F804E000F076F8C2
:100FE00000F098F800282BD108E0716A0A780261B5
:100FF000706A411C7162308DFFF7BEFF308DA0B169
:1010000022462946304600F038F9A0B9706A3268A5
:1010100001781161706A411C7162308D411E00F0CF
:1010200019F8EBD589B20029DFD12246294630468E
:1010300000F04EF930B17868042801D100F03EF894
:10104000012005E000F03AF800F00CF800E0022082
:10105000BDE8F6873185708D421E72853068426921
:1010600053077047202078700021B9700020387035
:1010700070470121397030680268D10770470094C9
:10108000192301221049304600F08EB8A1860100D4
:1010900080841E0000093D0040420F000030FFFF29
:1010A000007CFFFF0646884691469A4600F01EBC2B
:1010B00006F13C07044678782028704730680168BC
:1010C00041F400710160704702001000C6F824C0AE
:1010D00070855346708D30854A46DFF83400F062E3
:1010E00001940095304670470000026842F001020A
:1010F00002607047009021684A6900927047016061
:101100000096534600224FF00111204600F04CB8E3
:101110000000FFFF2DE9F84304462068DDF8208039
:10112000099F8946016841F4807115461E46016099
:1011300000974346FFF7E6FF08BB206809F0FE0171
:1011400001613B464246174900F02AF8B8B9FFF75B
:10115000D1FF3A468969009141460098FFF707FFA1
:1011600040B9012E0DD02168280A08613A46FFF7E0
:10117000FDFE30B1206C042801D100F008F80120F8
:1011800003E02068EDB205610020BDE8F28320682D
:10119000016841F400710160704733465246494688
:1011A000204629E0020001002DE9F041069F054696
:1011B0000E4690461C4631022868090E01290CBFD4
:1011C00040698069304080B2B1B288420CBF0120D2
:1011D000002040450DD114F1010FECD000F086FB4A
:1011E000C01B844201D3002CE5D100F063F801203C
:1011F00000E00020BDE8F081F8B505460E46144633
:101200001F463102090E2868012919D14169314070
:1012100089B2B2B2914219D041694A0518D500F09D
:1012200025F82A685061002105F13C00296320223D
:1012300042708170426842F004024260017013E023
:101240008169314089B2B2B29142E5D10020F2BD4C
:1012500014F1010FD5D000F049FBC01B844201D32B
:10126000002CCED100F026F80120F2BD016841F437
:10127000007101606FF48060704770B505460C46E0
:10128000164628684169080612D4284600F03DF841
:1012900008B1012070BD14F1010FF2D000F026FB5F
:1012A000801B844201D3002CEBD100F003F8F0E75F
:1012B000002070BD00202863202105F13C000022A1
:1012C00041708270416841F02001416002707047B6
:1012D00070B505460C46164628684169480712D481
:1012E000284600F012F808B1012070BD14F1010F7A
:1012F000F2D000F0FBFA801B844201D3002CEBD12A
:10130000FFF7D8FFF0E7002070BD01684A69530578
:101310000FD56FF480624A61002101633C302022C6
:1013200042708170426842F0040242600170012004
:1013300070470020704730B4002513E050F8042BAC
:10134000D30744BFA9F101039A18091F042942F8E1
:10135000045BFAD213468C0744BF15809B1CC90757
:1013600048BF1D7050F8041B0029E7D130BC7047FE
:10137000234881B0016841F001010160026802F078
:10138000010200920099426842F080524260406837
:1013900000F08050009000981A48016821F0E06148
:1013A00041F00071016001B0704718B585B0044686
:1013B0001022002101A800F09FFA21681248814202
:1013C0001CD10F4C216841F008012160C021206828
:1013D00000F008000090122200980C48019102923F
:1013E0000321049101A900F091FA606840F4001013
:1013F0006060606800F400100090009806B010BDB6
:10140000181002400400014000540040000C01404C
:101410002DE9F843040016D02078DFF86064C10796
:1014200013D5706800F00C00042807D0706800F035
:101430000C00082841D17068C1033ED53068810393
:1014400003D56068002800F064812078DFF83C74E0
:10145000810719D5706810F00C0F07D0706800F084
:101460000C00082861D17068C1035ED43068810720
:1014700003D52069012840F04C813168606921F072
:10148000F80141EAC00131602178080740F181800C
:10149000A069DFF8FC13002800F0A68001220A6092
:1014A00000F024FA0546706A810763D400F01EFA42
:1014B000401B0228F7D903202EE16068B0F5803F79
:1014C00004D1306840F48030306014E008B93068EE
:1014D0000AE0B0F5A02F306806D140F480203060DB
:1014E000316841F4803105E020F4803030603168AB
:1014F00021F480213160606858B100F0F7F90546A9
:1015000030688103A1D400F0F1F9401B6528F7D3BE
:10151000D1E700F0EBF905463068810395D500F07E
:10152000E5F9401B6528F7D3C5E72069A8B101217B
:10153000396000F0DBF905463068810705D400F01A
:10154000D5F9401B0228F7D9B5E73068616920F06A
:10155000F80040EAC100306096E7386000F0C6F954
:101560000546316888078FD500F0C0F9401B022876
:10157000F7D9A0E7DFF808030168C9084FF47A72C9
:10158000B1FBF2F2009200BF0098411E00280091CA
:10159000F9D1207841076ED5F0690025C10009D442
:1015A000F06940F08050F0610125F06900F0805052
:1015B00000900098DFF8DC82D8F80000C10520D444
:1015C000D8F8000040F48070C8F8000000F08EF9F0
:1015D0008146D8F80000C10513D400F087F9A0EBCC
:1015E00009006528F5D366E7086000F07FF9054635
:1015F000706A8107CDD500F079F9401B0228F7D930
:1016000059E7E068012808D008B9306A09E00528E0
:10161000306A06D140F004003062306A40F00100C8
:1016200005E0400840003062306A20F0040030627B
:1016300041F28938E06860B100F058F98146306ABB
:10164000810713D400F052F9A0EB09004045F6D30E
:1016500031E700F04BF98146306A810706D500F08A
:1016600045F9A0EB09004045F6D324E71DB1F06928
:1016700020F08050F061E06900284CD0716801F0E2
:101680000C01082938D002282AD100F047F8054675
:101690003068810105D500F029F9401B0228F7D9EF
:1016A00009E7206AB0F5803F05D17168A06821F490
:1016B0000031014371607268206A616A22F4741219
:1016C00002430A437260012000F029F804463068A2
:1016D000810120D400F00AF9001B0228F7D9EAE6BC
:1016E00000F01CF804463068810114D500F0FEF8C3
:1016F000001B0228F7D9DEE601280AD07068226AAA
:1017000000F48031914202BF00F47010616A884297
:1017100001D0012000E00020BDE8F28300203866FF
:1017200000F0E4B82DE9F041040088464ED05A4E4E
:1017300000F077F802D200F06FF847D120684F4DE3
:10174000810712D5400703D5696841F4E0616960FB
:101750002078010703D5686840F4605068606968C4
:10176000A06821F0F001014369602178C80725D500
:101770006068012802D129688A0303E002282968E9
:1017800002D18A0102D421E08A071FD5696889083D
:1017900040EA8100686000F0A9F80746686861685F
:1017A00000F00C00B0EB810F08D000F09FF8C01BD8
:1017B00041F289318842F1D303202BE0306800F0F8
:1017C0000700804504D200F027F801D0012021E075
:1017D0002078410705D56A68E06822F4E062024398
:1017E0006A602178080706D56968206921F460518C
:1017F00041EAC001696000F019F86A682749204B86
:10180000C2F30312895CC84018601F48006800F0EA
:101810005DF90020BDE8F0813168C90848EAC101DE
:101820003160306800F00700404570471C4915489A
:101830000A6802F00C03082B00D0704710B500BFF7
:101840001AA4C2F38343D203E35C08D50968584362
:101850001AA3C1F340415A5CB0FBF2F010BD184628
:101860001049484310BD06480D4A006813680E49E8
:10187000C3F30222FFE7895CC840704700100240B2
:101880001400002000127A001000002000004242E4
:10189000800442420070004000200240E025000821
:1018A0000410024000093D00BC26000802030405A4
:1018B000060708090A0B0C0D0E0F1010010230B4B8
:1018C0000EE00268436802440830DC0744BFA9F117
:1018D0000104E31852F8045B43F8045B091FF9D1D3
:1018E00050F8041B0029ECD130BC70470148406817
:1018F000704700BF0800002010B5044610460A4695
:101900000146204600F002F9204610BD2DE9F847B7
:101910004FF0000E0024604A604BDFF884814FF0E6
:101920000F0982460CE0D7683840D06006E0956029
:101930004D68AD02F7D5D0680743D7600EF1010EB0
:101940000F6837FA0EF000F09F80012000FA0EF6C3
:101950003740B742F2D1486838B301281AD002287C
:101960001DD003282ED0112816D012281AD04D4D84
:10197000A8421CBF4C4DA84217D04C4DA8421CBFDA
:101980004B4DA84211D04B4DA8421CBF4A4DA84216
:101990000BD018E0CC6816E0CC68241D13E0CC68AE
:1019A000083410E0CC680C340DE0886808B90424D1
:1019B00009E0012819BF0824CAF814600824CAF8ED
:1019C000106000E00024B7F5807F03D250464FEA54
:1019D0008E0C05E0AEF108050AF104004FEA850C13
:1019E000056809FA0CF6B54304FA0CF635430560B0
:1019F0004868C000A2D5D8F8000040F00100C8F83F
:101A00000000D8F8005005F0010500954FEA8E055A
:101A100000984FEA9E0053F8206005F00C0C09FA7C
:101A20000CF526EA0505254EB24508BF00260ED066
:101A3000234EB24508BF012609D0224EB24508BF49
:101A4000022604D0204EB2450CBF0326042606FA17
:101A50000CF6354343F82050F8434D68ED03156804
:101A60004CBF3D43054015604D68AD0355684CBF04
:101A70003D43054055604D689668ED024CBF47EA0E
:101A8000060500EA060552E7BDE8F18780680840D0
:101A900018BF0120C0B27047000401400800014097
:101AA0001810024000001110000012100000211058
:101AB0000000221000003110000032100008014028
:101AC000000C0140001001400014014038B50D4DDC
:101AD0000D4B2A7804464FF47A711868B1FBF2F284
:101AE000B0FBF2F000F07DF850B9102C08D20022C3
:101AF00021464FF0FF3000F057F8AC60002032BDB7
:101B0000012032BD080000201400002062F30F22E3
:101B100062F31F42401810F0030308D0C91A1FD304
:101B2000DB0748BF00F8012D28BF20F8022D130065
:101B300030B414461546103928BF20E93C00FAD8C5
:101B4000490728BF20E90C0048BF40F8042D890050
:101B500028BF20F8022D48BF00F8012D30BC704787
:101B6000C91818BF00F8012DCB0728BF00F8012DB8
:101B7000704700000901020002D4244881547047D4
:101B8000234B02F00F021A4402F8041C7047214B49
:101B900019684FF6FF020002114000F4E0600843AC
:101BA0001D4908431860704770B51A4B1C68C4F390
:101BB00002230124C3F10705052D2EBF0F2504FACA
:101BC00005F56D1E1E1D072E34BF0023DB1E2940A8
:101BD000994004FA03F3BDE870405B1E1A401143BC
:101BE000C8E710B5401EB0F1807F01D3012010BDC1
:101BF0000A4C60600F214FF0FF30FFF7BBFF002160
:101C0000A16007202060002010BD000000E400E07B
:101C100018ED00E00CED00E00000FA0510E000E037
:101C2000010007D4012200F01F01AE4B8A40400999
:101C300043F8202070470901020002D4AA488154C9
:101C40007047AA4B02F00F021A4402F8041C7047B6
:101C500030B500F007000123C0F10704052C2EBFAA
:101C60000F2403FA04F4641E051D072D34BF002061
:101C7000C01E2140814003FA00F0401E104008437E
:101C800030BD9B4981B00A6802430A600968084078
:101C90000090009801B070472DE9F84386B000F03D
:101CA00075F900F04DF901A800210022002300245D
:101CB00080E81E008F4C904E2168904FDFF8248200
:101CC00041F0200121604FF44875206800F02000A9
:101CD00000900098216841F004012160226802F020
:101CE000040200920098216841F008012160072158
:101CF000226802F008020092009881480191029344
:101D00000121039101A9FFF701FE142101A800F0B0
:101D10004FF9206840F40060206000222168794C6F
:101D200001F400610091002100982068C0F30220B6
:101D3000FFF78EFF01461920FFF77DFF1920FFF7FF
:101D40006FFF63200021ADF80400029104918DF82B
:101D50001410039501A9304600F02EF9306820F0E8
:101D600080003060B0683840B060716821F0700168
:101D700071601421B06820F08000B060684600F007
:101D800017F90120FFF77DFF00F0D4F801461C2071
:101D9000FFF751FF4FF08050C8F800006321ADF805
:101DA0000010002201920392029569464FF0804094
:101DB00000F002F94FF08045286820F0800028608C
:101DC000A9683940A9601421686820F07000686033
:101DD000A86820F08000A860684600F0E9F80220BA
:101DE000FFF74FFF00F0A6F801461D20FFF723FF85
:101DF0004FF00051C8F8001041F63F7264210023F3
:101E00000291ADF800200193039369463E4C2046B1
:101E100000F0D2F820683D4A20F0800020600023C6
:101E2000A1680F40A7606068394920F070006060C9
:101E3000A06820F08000A060364842604FF48042E5
:101E400001608360C360026143618361C3610362B7
:101E5000FEF7FAFF00F0F6F84FF47A7000F008FA97
:101E6000012000F053F900F05DF91721172000F070
:101E7000F5F929480023D0E9008941464FEA0902D3
:101E800040A000F0D8F900F04DF94FF47A7000F05E
:101E9000EFF92249224B05200880002221491A80AF
:101EA0000020214B0880052220491A800880204B01
:101EB0001880F06840F00100F060316841F00101E5
:101EC0003160E86840F00100E860296841F00101F4
:101ED0002960E06840F00100E060216841F0010104
:101EE0002160FEE700E100E000E400E018ED00E022
:101EF0001C10024018100240002C0140F8BFFFFFE8
:101F0000000801400CED00E000040040A086010044
:101F1000005400401C040020000000207804002031
:101F20007A0400207C0400207E040020800400202D
:101F300082040020206800220021C0F3022087E6EE
:101F400000B58FB0282105A800F032F814216846AA
:101F500000F02EF8022101220591099210210022A1
:101F60000A910C9205A8FFF753FA0F200090002168
:101F700001910291039104916846FFF7D3FB0FB0E2
:101F800000BD00004D414D410000000080B50748F4
:101F9000016841F0100101600320FFF7F8FD002007
:101FA000FFF794FDFFF7E4F9002002BD0020024096
:101FB000002200F071B9000070B5164E0368174C8E
:101FC000154DB04218BFB0F1804F03D0A84218BFE2
:101FD000A04209D14A6823F070031343B0421CBFEA
:101FE000B0F1804FA84201D0A04203D1CA6823F4C7
:101FF000407313430360B0428A68C2620A888262F7
:1020000002D1097C064A1160416941F00101416138
:10201000002070BD002C014000040040000800407A
:10202000302C014001B584B00A20012104AA02909D
:10203000019100920123002278218A48FEF7A2FF35
:1020400005B000BD80B5642000F012F9AE20FFF7A6
:10205000E9FF2020FFF7E6FF1020FFF7E3FFB020A5
:10206000FFF7E0FFC820FFF7DDFF0020FFF7DAFFF2
:102070001020FFF7D7FF4020FFF7D4FF8120FFF7A4
:10208000D1FFFF20FFF7CEFFA120FFF7CBFFA62057
:10209000FFF7C8FFA820FFF7C5FF3F20FFF7C2FFEB
:1020A000A420FFF7BFFFD320FFF7BCFF0020FFF7FE
:1020B000B9FFD520FFF7B6FFF020FFF7B3FFD92017
:1020C000FFF7B0FF2220FFF7ADFFDA20FFF7AAFFEE
:1020D0001220FFF7A7FFDB20FFF7A4FF2020FFF768
:1020E000A1FF8D20FFF79EFF1420FFF79BFFAF207D
:1020F000FFF798FF002000F009F800F013F85A48A5
:102100000021012301604371012002BD0021574AD3
:1021100003000CBF0023FF235354491CB1F5806F0B
:10212000F6D370477FB500244E4D504EA4F15000B9
:10213000C0B2FFF777FF0020FFF774FF1020FFF712
:1021400071FF6420802106EBC4120290019100927D
:102150000123402278212846FEF714FF641C082C36
:10216000E4DB7FBD802800DB704770B540290CDAC6
:10217000CB083D4D3D4C00EBC3102B7933B13AB148
:1021800000F00AF822EA0101215470BD012AF7D1BA
:1021900000F002F81143F7E78D0801EB5576F608D9
:1021A000225C0123A1EBC60103FA01F170472DE97E
:1021B000F74F2D4C9DF8041025884A19802ABFBF7F
:1021C0009DF805806188414440299946A8BF0020B8
:1021D0002FDA4FF0000B8DF8000001E00BF1010B3E
:1021E0009DF8050083451ED29DF800100298668870
:1021F000203908FB01B130F811A000275E449DF89A
:1022000004008742EAD278190AFA07F109045FFA52
:1022100089F202D4521E9241D20FF1B2C0B2FFF73E
:10222000A1FF7F1CEBE79DF8040045199DF8000015
:102230002580BDE8FE8FF8B506460C4615461F46BC
:1022400000E0761C307838B1FBB221462A46FFF711
:10225000AEFF31788842F4D03078F2BD024A108067
:10226000518070471C040020700400201C000020D6
:1022700038B50446FFF73AFB14F1010F054602D0CA
:10228000044908780419FFF731FB401BA042FAD338
:1022900031BD00BF0800002000B500BF1300964606
:1022A0009446103928BFA0E80C50FAD85FEA417C68
:1022B00028BF0CC048BF40F8042BC90728BF20F82E
:1022C000022B48BF00F8012B00BD000009289F49E0
:1022D00000D9704738B5DFE800F005090D11151970
:1022E0001D21252900F02BF869A022E000F027F835
:1022F00068A01EE000F023F867A01AE000F01FF8C5
:1023000066A016E000F01BF865A012E000F017F8D8
:1023100064A00EE000F013F887A00AE000F00FF8C8
:1023200086A006E000F00BF885A002E000F007F8B8
:1023300084A001B0BDE83040FFF77DBF31BDD1E9D9
:102340000045002321462A4670477047FEE7FEE716
:10235000FEE7FEE770477047704700F013B9F8B525
:102360007B4B7C4C794E7C4F6FF001021A60172139
:102370001720FFF773FF20880A2190FBF1F0FFF789
:10238000A5FF20880A210A2400F03BF8D6E90001C5
:102390000A466DA5014600232846FFF74CFF00F0D2
:1023A0002BF838886D4F00F02BF800F02FF86C4AAE
:1023B0001088FFF78BFF2B211720FFF74FFF00F04E
:1023C0001BF83888674F00F01BF800F01FF800F08A
:1023D00013F838880A2190FBF1F104FB1104204620
:1023E000FFF774FF00F012F85F4A1088FFF76EFFE6
:1023F000BDE8F140FFF796BE388890FBF4F065E742
:102400000A2190FBF1F104FB11005FE7D6E900011E
:102410000A46014600232846FFF70DBFF8B5534989
:10242000534F544C544D6FF0010008600121384661
:10243000FFF72CFB20B92888012827D1002109E0CB
:1024400002213846FFF722FB4C4E28B9308801287C
:102450001CD101212170F1BD04213846FFF716FB84
:10246000A0B902203B4A207005213B48118000237F
:102470003B4A03800021394811800523394A0380F3
:10248000118039480180012129803180F1BD00008F
:102490003000000031000000320000003300000076
:1024A000340000003500000070B53549314A6FF046
:1024B00001000860137813B1012B15D070BD2E4BAD
:1024C0001888012836D1264C208800282FD1214E8B
:1024D000214D3088002804BF2988002919D120887F
:1024E000B8B91980012312E0244B1888012821D1A2
:1024F0001D4C2088D8B9194E1A4D3088002804BFC9
:102500002988002905D1208818B919800023137063
:1025100070BD09222280288828B93B212980308873
:10252000421E328070BD2988481E288070BD2288D6
:10253000511E218070BD00003600000037000000F1
:1025400038000000390000003A00000000000020C0
:10255000102C0140780400207A0400207E04002022
:102560007C04002080040020820400201000004031
:102570000008014084040020180000201A000020F8
:102580001004004002494A68087882184A6070477F
:102590000800002010B50E4A0E49106840F00100F6
:1025A000106053680C480B4053601468044014607A
:1025B000116821F4802111604FF41F01506820F44C
:1025C000FE00506091604FF00060044A106010BD42
:1025D000001002400000FFF8FFFFF6FE08ED00E0EB
:1025E00000000000000000000102030406070809C3
:1025F00010B5074979441831064C7C44163404E080
:102600000A68081D114488470146A142F8D110BD4F
:1026100008000000280000001FEDFFFF6C04000010
:102620001C0000200000000097F2FFFF1C000000CB
:1026300054000000000000200000000000F00DF831
:10264000002801D0FFF7D4FFAFF300800020AFF3E4
:102650000080FFF721FB00F002F80120704700F036
:1026600001B800000746384600F002F8FBE700001A
:1026700080B5AFF30080024A11001820ABBEFBE723
:10268000260002000B120000EC0000080100000010
:1026900000000000100000000024F4000100010010
:1026A000014880470148004795250008B1260008E9
:1026B000AFF30080AFF30080FFF7C0FF0000000021
:1026C00001020304FFF7FEBFFFF7FEBFFFF7FEBFE7
:1026D000FFF7FEBFFFF7FEBFFFF7FEBFFFF7FEBF2E
:1026E000FFF7FEBFFFF7FEBFFFF7FEBFFFF7FEBF1E
:1026F000FFF7FEBFFFF7FEBFFFF7FEBFFFF7FEBF0E
:10270000FFF7FEBFFFF7FEBFFFF7FEBFFFF7FEBFFD
:10271000FFF7FEBFFFF7FEBFFFF7FEBFFFF7FEBFED
:10272000FFF7FEBFFFF7FEBFFFF7FEBFFFF7FEBFDD
:10273000FFF7FEBFFFF7FEBFFFF7FEBFFFF7FEBFCD
:10274000FFF7FEBFFFF7FEBFFFF7FEBFFFF7FEBFBD
:10275000FFF7FEBFFFF7FEBFFFF7FEBFFFF7FEBFAD
:04276000FFF7FEBFC2
:04000005080026B118
:00000001FF
