:020000040800F2
:1000000088080020112D0008C5230008C723000818
:10001000C9230008CB230008CD23000800000000FE
:10002000000000000000000000000000CF230008D6
:10003000D123000800000000D3230008D5230008C6
:10004000352D0008392D00083D2D0008412D0008F0
:10005000452D0008492D00084D2D0008512D0008A0
:10006000552D0008592D00085D2D0008612D000850
:10007000652D0008692D00086D2D0008712D000800
:10008000752D0008792D00087D2D0008812D0008B0
:10009000852D0008892D00088D2D0008912D000860
:1000A000952D0008992D00089D2D0008A12D000810
:1000B000D92300084D240008A52D00086F2500084D
:1000C00075250008A92D0008AD2D0008B12D0008E8
:1000D000B52D0008B92D0008BD2D0008C12D000860
:1000E000C52D0008C92D0008CD2D0008F8B5040065
:1000F0001BD004F13C05697821B900202870204606
:1001000000F0C9FF2421697020680268520852007B
:10011000026001F003F801466068DFF82422904293
:1001200005D2DFF82032994205D20120F2BDDFF876
:1001300018028142F9D32068DFF810324668B1FB1B
:10014000F3F3B60943EA861646602668376A6068A4
:10015000904206D34FF4967043434FF47A70B3FB4A
:10016000F0F35B1CBF0943EA87133362491E23681F
:10017000DE696768974206D27F0000F043F80429E1
:1001800013D2042111E0A06820B907EB470700F063
:1001900039F805E01920474300F034F841F4804174
:1001A00008050CBF012141F40041DFF8A40106401D
:1001B0000E43DE6122681368E169206A23F0C00300
:1001C0000B43034313602268DFF8880193682169B9
:1001D0000340E0680B43034393602168CA68A36946
:1001E0006069120A034343EA0222CA602068016878
:1001F00041F00101016000206860202169702063E6
:10020000A870F2BDB1FBF7F1491CC1F30B017047B7
:100210004146204600F0A7BE308D7262411E3185F6
:10022000708D411E71857047009021684A69009267
:1002300089690091009870472DE9FC4700F08CF81F
:1002400000F090F85DD100F074F8002859D13878AA
:10025000012856D000F067F801D400F0A0F841461C
:10026000D6F800E00C9D0B98DDF828C0DEF8008081
:1002700028F40068CEF800804FF0210E87F801E0E6
:100280004FF0400887F802804FF0000EC7F804E0F6
:1002900000F076F800F070FD00282BD108E0716ABC
:1002A0000A780261706A411C7162308DFFF7B6FFF7
:1002B000308DA0B122462946304600F054FEA0B948
:1002C000706A326801781161706A411C7162308D08
:1002D000411E00F019F8EBD589B20029DFD1224682
:1002E0002946304600F06AFE30B17868042801D112
:1002F00000F03EF8012005E000F03AF800F00CF8BC
:1003000000E00220BDE8F6873185708D421E7285BF
:100310003068426953077047202078700021B97017
:100320000020387070470121397030680268D107A9
:1003300070470094192301221049304600F0AABDED
:10034000A186010080841E0000093D0040420F008C
:100350000030FFFF007CFFFF0646884691469A4624
:1003600000F0EEBE06F13C0704467878202870477E
:100370003068016841F400710160704702001000AC
:10038000C6F824C070855346708D30854A46DFF824
:100390004800F06201940095304670470000026802
:1003A00042F0010202607047016821F4806101603F
:1003B0007047009021684A6900927047016000967A
:1003C000534600224FF00111204600F063BD416802
:1003D00041F48051416070470000FFFF2DE9FC416E
:1003E000044604F13C052168DFF81C6A4A68D4F829
:1003F0002CC0A8786F780023102818BF402840F040
:10040000188288694B69DF0705D4BCF52A0F18BF2D
:10041000BCF12A4F46D0DF0745D5970543D5E06AA2
:10042000B0F52A0F08BF012204D0E06AB0F12A4FCC
:1004300001D10822E262A878402809D16869002821
:10044000A8681ABF40F00100C0B200F0FE0028E02A
:100450002069B0F5804F16D168782128A8680EBFB2
:1004600000F0FE0040F00100C0B20861616B00299D
:1004700004BFA06B002815D0886A002802BFA16BBA
:10048000886A002822E0686920B900F0E0FA40F0AC
:10049000F00006E06869012804D100F0D8FA40F0C5
:1004A000F1000861C9E21F0716D5970514D5A868A1
:1004B000C0B20861616B002904BFA06B0028F1D0B5
:1004C000886A002802BFA16B886A0028EAD02068E9
:1004D000416841F400613BE19F0700D5970540F179
:1004E0009A80AB78E26A276B6878222840F08B808C
:1004F0006869002808BF402B00F0858068690028E3
:1005000004BF2069B0F5404F04D100F0C0FA00F0FC
:10051000B1FAC6E0608D78B1608D01282DD1B2426C
:100520000DD10A6822F480620A60216848680205D9
:1005300002D500F092FA62E000F0A9FA0BE0082A76
:1005400018BF202A03D0122F08D1012A0BD000F0A7
:1005500084FA00F0B3FA00F087FA52E0042A1CBFD4
:10056000022A102A04D0086820F48060086044E061
:100570000A6842F480620A603FE0638D022B29D151
:10058000042A1CBF022A102A0CD0086840F400601C
:1005900000F076FA8F69009700980B6823F4806367
:1005A0000B6007E0086840F4806000F069FA896930
:1005B00000910098206841680B0522D5B24218BF0F
:1005C000012A04D0082A1CBF102A202A19D1FFF7BB
:1005D000FEFE16E0086840F480600860206841680C
:1005E0000B050AD5B24218BF012A04D0082A1CBF45
:1005F000102A202A01D1FFF7EAFE00200090FFF721
:1006000014FE002159E0002200924B690093896991
:100610000091009A11E2400740F182804F6838054E
:10062000F8D41F065AD5500558D55F0756D46A78B6
:10063000AB78E76A208D002808BF212A13D1082F44
:100640001CBF202FB74204D000F0FAF90022AA7094
:1006500059E000F060FA5CD10021A9702046BDE8A5
:10066000F64100F073BD212A03D0402B08BF222A97
:1006700005D1608D20B9486820F480604860DCE1D5
:10068000A878402829D1686978B928690128E868DC
:1006900004D1C0B208616969891C0EE00004000E33
:1006A00008616869401C6861C7E16869012806D172
:1006B000E868C0B208616969491C6961BDE168699F
:1006C0000228FBD16878222804D10A6842F480729B
:1006D0000A60B2E168782128FBD17AE15807F8D5A1
:1006E0009205F6D5E26A68782128F2D1608D08B1CA
:1006F00000F06FB9082A1CBF202AB24206D000F0D1
:100700009FF90020A8702021697004E000F003FA2E
:10071000A2D00021A9702046BDE8F64100F017BD27
:100720004868060515D4580633D5560531D55807FF
:100730002FD46A78222A0CD1608D04280AD300F0C5
:10074000ADF9608D032804D12068416821F48061EF
:10075000416072E1E26A022AFBD0012818BF00283A
:10076000F7D1086820F48060086000F0F0FA00F02B
:10077000BFF96262202200F097F96A70A8784028D9
:100780004ED10021A97021632046BDE8F64100F05A
:10079000DFBC5807DDD59205DBD5E06A628D042AFF
:1007A00005D1486820F48060486021683DE1628D91
:1007B000032A0CD14A68042822F4806218BF022858
:1007C0004A6001D000F09BF900F092F932E1628DAD
:1007D000022AEBD1012818BF10280CD0042818BF1A
:1007E000022803D0086840F4007007E00A6842F469
:1007F00080620A6003E0086820F480600860216875
:1008000000F04CF92268106900F049F9206841684D
:1008100021F44071416020206870A9784029B0D04F
:100820000020A870122121632046BDE8F64100F0A7
:1008300090BC686800B98B6948695FEA807C48BFF2
:100840005FEA825E23D5686800B18B696A78002010
:1008500002F02802282A14D14A6822F480624A60F1
:10086000590758BF0120190654BFE268A269002148
:10087000297002B001462046BDE8F04192B200F076
:1008800069BC6FF00200486100212970D5E0C30601
:1008900074D5930572D56F78486820F4E06048609D
:1008A00000210091206841690091FFF778FD0098D0
:1008B00000F025F921684868020528D5222F18BFC5
:1008C0002A2F0FF24D5810D0606B00F0FDF8606BCE
:1008D00000F0B6FC01281AD0606BC0F83480606B61
:1008E00000F050FC98B1606B0FE0A06B00F0ECF8EA
:1008F000A06B00F0A5FC012809D0A06BC0F83480E3
:10090000A06B00F03FFC10B1A06B416B8847608D7D
:1009100098B1206841694A0702D5006900F0BFF824
:10092000206841694A0602D5006900F0B8F8608D78
:1009300018B1686840F004006860686818B1204623
:10094000BDE8F64187E12A2F05D12063282169708F
:10095000204600F078FC6878282807D1E66200F08D
:10096000D4F82046BDE8F64100F06EBC206B22288A
:1009700018BF222F61D100F0C8F84BE0212F18BF1B
:10098000292F2DD103061DD556051BD5430719D494
:100990006A78608D002850D0606A03780B61606AC5
:1009A000411C616200F084F808BF292A45D100F09B
:1009B00099F821202063282169702046BDE8F6417E
:1009C00000F043BC400738D5920536D5608D00282D
:1009D00033D0606A02780A61606A411C61622AE071
:1009E00043061CD556051AD5430718D46A78608D7E
:1009F00018B30869616A0870606A431C636200F09A
:100A000057F808BF2A2A18D100F06CF8222020637A
:100A1000282169702046BDE8F64100F014BC40076B
:100A20000BD5920509D5608D38B10869616A0870E7
:100A3000606A421C626200F037F8BDE8F381000092
:100A4000486820F4E0604860112121637047A8687D
:100A50000004C00D00F006007047086820F48060B4
:100A6000086000210091704700980A6842F4007203
:100A70000A60704700980A6842F480720A60704702
:100A800008600021009121684B69009370470022A3
:100A900000924B6900938A69009270470869616A05
:100AA0000870606A421C6262608D411E61857047F9
:100AB000608D411E6185608D0028704721684A69FC
:100AC00000928B6900937047026853686385608D5C
:100AD00018B1686840F004006860486820F400605D
:100AE000486070472068416821F480614160704728
:100AF00020680169606A0170616A4A1C7047206859
:100B0000016821F48061016070470020206320218A
:100B10006970A8707047486820F4E06048602068F9
:100B2000016841F400710160002020632021697098
:100B3000A87840287047F8B505460024286846691B
:100B40004768F1050AD5FA0508D56FF4807141614F
:100B500001242868026842F400420260B00507D50B
:100B6000F90505D529686FF4007044F00204486166
:100B700070055DD5F9055BD505F13D006FF4806129
:100B800090F801E06A8D0378D5F830C0BEF1200FEF
:100B900008BF002A42D1212B18BF292B04D0282BB3
:100BA00008BFBCF1210F39D10278EB6ADFF858C2D7
:100BB000082B14BF202B282A16D1C5F82CC02A6870
:100BC000536823F4E06353602A6851612022296846
:100BD0000B6823F480630B6000212963027041706D
:100BE000284600F031FB23E0212A14D1C5F82CC09F
:100BF0002A6320230370002242702868426822F48E
:100C0000E0624260286841612868FFF7CDFB284612
:100C100000F01BFB0CE02868416109E02A68516183
:100C200044F004044078102802D12868FFF7A1FBA3
:100C3000300507D5F90505D529686FF4006044F043
:100C40000804486134B1286C04432C642846BDE88C
:100C5000F24000E0F1BD38B5044604F13D052878C6
:100C60006978102908BF222804D121680A6822F473
:100C700000620A6000F02801282903D100202063C7
:100C800029700AE0226851680A0503D460281CBF55
:100C900020202870002121636970206841680A05BE
:100CA00023D5416821F400614160606B0FF261114E
:100CB00090F82120012A09D04163606B00F062FAAC
:100CC000002825D000F050F8606B0BE0A06B41636A
:100CD000A06B00F057FAD8B1206800F02EF800F0B1
:100CE00043F8A06B416B884712E02A78602A0AD14A
:100CF000202129700022226400F01FF800F02DF856
:100D000000F0A4FA04E000F018F8204600F09FFA82
:100D10002878216C4A070FD528280DD100F017F844
:100D200000213948E0622163202028706970204644
:100D3000BDE8324000F088BA31BD41694A0605D5A8
:100D40000069616A0870606A421C626270472068CC
:100D5000416821F4E06141607047206801684908FA
:100D60004900016020467047206801684908490031
:100D700001602020287070472DE9F8430446206860
:100D8000DDF82080099F8946016841F4807115468D
:100D90001E46016000974346FFF713FB08BB20681F
:100DA00009F0FE0101613B464246184900F02AF86D
:100DB000B8B9FFF7FEFA3A468969009141460098B2
:100DC000FFF727FA40B9012E0DD02168280A0861E3
:100DD0003A46FFF71DFA30B1206C042801D100F02B
:100DE00008F8012003E02068EDB205610020BDE8AD
:100DF000F2832068016841F4007101607047334656
:100E00005246494620466DE00000FFFF0200010007
:100E100038B5406A00F13D0100230A78446BA362B3
:100E2000846BA362002403681D6825F480651D603F
:100E300000234385436B5C63836B5C6303681C68BE
:100E4000640864001C600B78602B08D120220A70B3
:100E500000234B700364BDE8324000F0F7B902F0A4
:100E60002802282A0ED10268136843F00103136098
:100E700028230268146844F480641460002202632A
:100E80000B7003E020220A7000244C70BDE8324051
:100E900000F0DDB92DE9F041069F05460E4690466B
:100EA0001C4631022868090E01290CBF406980697F
:100EB000304080B2B1B288420CBF012000204045D2
:100EC0000DD114F1010FECD000F03AF9C01B8442AF
:100ED00001D3002CE5D100F063F8012000E00020F0
:100EE000BDE8F081F8B505460E4614461F463102AE
:100EF000090E2868012919D14169314089B2B2B27D
:100F0000914219D041694A0518D500F025F82A68A0
:100F10005061002105F13C0029632022427081705C
:100F2000426842F004024260017013E0816931407E
:100F300089B2B2B29142E5D10020F2BD14F1010FA5
:100F4000D5D000F0FDF8C01B844201D3002CCED1D7
:100F500000F026F80120F2BD016841F40071016043
:100F60006FF48060704770B505460C4616462868D9
:100F70004169080612D4284600F03DF808B1012066
:100F800070BD14F1010FF2D000F0DAF8801B84423A
:100F900001D3002CEBD100F003F8F0E7002070BD86
:100FA00000202863202105F13C000022417082705E
:100FB000416841F0200141600270704770B50546FC
:100FC0000C46164628684169480712D4284600F0A6
:100FD00012F808B1012070BD14F1010FF2D000F039
:100FE000AFF8801B844201D3002CEBD1FFF7D8FF70
:100FF000F0E7002070BD01684A6953050FD56FF412
:1010000080624A61002101633C302022427081707D
:10101000426842F0040242600170012070470020E3
:10102000704730B4002513E050F8042BD30744BFB9
:10103000A9F101039A18091F042942F8045BFAD2A6
:1010400013468C0744BF15809B1CC90748BF1D7001
:1010500050F8041B0029E7D130BC70472B4881B001
:10106000016841F001010160026802F00102009292
:101070000099426842F080524260406800F080501F
:10108000009000982248016821F0E06141F0007171
:10109000016001B0704718B585B0044610220021E8
:1010A00001A800F0D5F821681A4881422CD1174CCC
:1010B000216841F008012160C021206800F008008B
:1010C0000090122200981448019102920321049189
:1010D00001A900F0C7F8606840F4001060600022C9
:1010E000606800F400100090002100981F2000F0BC
:1010F000B3F91F2000F0CDF900220021202000F0DC
:10110000ABF9202000F0C5F906B010BD1810024060
:101110000400014000540040000C01400548064A0C
:10112000006813680549C3F30222FFE7895CC840E1
:101130007047000014000020041002402C2D00080D
:1011400001484068704700BF0800002070477047A2
:1011500070477047704730B40EE00268436802443D
:101160000830DC0744BFA9F10104E31852F8045B1E
:1011700043F8045B091FF9D150F8041B0029ECD196
:1011800030BC704738B590F821200024022A00F1C5
:10119000340103D00420486001243BE00268136856
:1011A00023F00E0313600268DFF8783015686D08CD
:1011B0006D00156002689A4208BF012222D0DFF854
:1011C00068309A4208BF10221CD0DFF860309A4283
:1011D00008BF4FF4807215D0DFF854309A4208BF30
:1011E0004FF480520ED0DFF84C309A4208BF4FF4D3
:1011F000803207D0DFF840309A420CBF4FF48012A3
:101200004FF08072DFF834301A6000F005F809689A
:1012100001B18847204632BD012280F8212080F8A4
:1012200020407047080002401C000240300002408D
:1012300044000240580002406C000240040002409A
:1012400090F82100704770477047704770477047AB
:1012500010B5044610460A460146204600F044F9FF
:10126000204610BD2DE9F8474FF0000E0024604ADB
:10127000604BDFF884814FF00F0982460CE0D7689D
:101280003840D06006E095604D68AD02F7D5D06873
:101290000743D7600EF1010E0F6837FA0EF000F029
:1012A0009F80012000FA0EF63740B742F2D148681D
:1012B00038B301281AD002281DD003282ED01128B7
:1012C00016D012281AD04D4DA8421CBF4C4DA84232
:1012D00017D04C4DA8421CBF4B4DA84211D04B4DCE
:1012E000A8421CBF4A4DA8420BD018E0CC6816E0BB
:1012F000CC68241D13E0CC68083410E0CC680C34B2
:101300000DE0886808B9042409E0012819BF082401
:10131000CAF814600824CAF8106000E00024B7F589
:10132000807F03D250464FEA8E0C05E0AEF10805EF
:101330000AF104004FEA850C056809FA0CF6B5437A
:1013400004FA0CF6354305604868C000A2D5D8F809
:10135000000040F00100C8F80000D8F8005005F087
:10136000010500954FEA8E0500984FEA9E0053F85C
:10137000206005F00C0C09FA0CF526EA0505254E4F
:10138000B24508BF00260ED0234EB24508BF012645
:1013900009D0224EB24508BF022604D0204EB245E5
:1013A0000CBF0326042606FA0CF6354343F82050FA
:1013B000F8434D68ED0315684CBF3D43054015608B
:1013C0004D68AD0355684CBF3D43054055604D68C1
:1013D0009668ED024CBF47EA060500EA060552E7AB
:1013E000BDE8F1878068084018BF0120C0B270478F
:1013F00000040140080001401810024000001110D4
:101400000000121000002110000022100000311016
:101410000000321000080140000C014000100140A3
:10142000001401400901020002D429488154704788
:10143000284B02F00F021A4402F8041C7047264B96
:1014400019684FF6FF020002114000F4E060084303
:10145000224908431860704770B51F4B1C68C4F3DD
:1014600002230124C3F10705052D2EBF0F2504FA21
:1014700005F56D1E1E1D072E34BF0023DB1E2940FF
:10148000994004FA03F3BDE870405B1E1A40114313
:10149000C8E7010007D4012200F01F01104B8A4069
:1014A000400943F82020704710B5401EB0F1807FFE
:1014B00001D3012010BD0B4C60600F214FF0FF30B5
:1014C000FFF7B0FF0021A16007202060002010BDC1
:1014D00000E400E018ED00E00CED00E00000FA058B
:1014E00000E100E010E000E062F30F2262F31F422F
:1014F000401810F0030308D0C91A1FD3DB0748BFF8
:1015000000F8012D28BF20F8022D130030B4144636
:101510001546103928BF20E93C00FAD8490728BFF2
:1015200020E90C0048BF40F8042D890028BF20F8AE
:10153000022D48BF00F8012D30BC7047C91818BFF4
:1015400000F8012DCB0728BF00F8012D70470000DF
:10155000000000000000000000000000000000008B
:10156000000000000000000000000000000000007B
:10157000000000000000000C000C000C000C000C2F
:10158000000C000C000C000C000C000C0000000C07
:10159000000C0000000000000000001B001B001BEE
:1015A000001B001B00000000000000000000000005
:1015B0000000000000000000000000000000801992
:1015C000801980198019C07FC07F80190033C07FC7
:1015D000C07F003300330033003300000000000000
:1015E0000000001E003F807580650074003C001EF6
:1015F00000078005806580658075003F001E00043F
:10160000000400000000007000D840D8C0D880D985
:1016100000730006000C801BC036C066C046C006C2
:1016200080030000000000000000001E003F0033A7
:1016300000330033001E000CC03CC0668063806134
:101640008063C03E801C0000000000000000000C11
:10165000000C000C000C000C00000000000000005A
:10166000000000000000000000000000000000007A
:10167000800000010003000600060004000C000CBE
:10168000000C000C000C000C000400060006000317
:1016900000018000002000100018000C000C000465
:1016A0000006000600060006000600060004000C06
:1016B000000C0018001000200000000C002D003F5E
:1016C000001E0033000000000000000000000000C9
:1016D000000000000000000000000000000000000A
:1016E0000000000C000C000C000CC0FFC0FF000C40
:1016F000000C000C000C00000000000000000000C6
:1017000000000000000000000000000000000000D9
:1017100000000000000000000000000C000C0004AD
:1017200000040008000000000000000000000000AD
:10173000000000000000001E001E0000000000006D
:101740000000000000000000000000000000000099
:101750000000000000000000000000000000000089
:101760000000000C000C000000000000000000035E
:10177000000300030006000600060006000C000C33
:10178000000C000C001800180018000000000000F9
:101790000000001E003F0033806180618061806D29
:1017A000806D8061806180610033003F001E000019
:1017B0000000000000000006000E001E003600269B
:1017C00000060006000600060006000600060006E9
:1017D00000060000000000000000001E003F8073B3
:1017E00080618061800100030006000C0018003059
:1017F0000060807F807F0000000000000000001C6F
:10180000003E006300630003000E000E0003800131
:10181000800180618073003F001E00000000000016
:1018200000000006000E000E001E001E001600360E
:1018300000360066807F807F0006000600060000FC
:10184000000000000000007F007F0060006000607A
:10185000006E007F80638001800180618073003FA3
:10186000001E0000000000000000001E003F80334A
:1018700080610060006E007F8073806180618061A4
:101880008033003F001E0000000000000000807F49
:10189000807F80010003000300060006000C000C9E
:1018A000000C0008001800180018000000000000DC
:1018B0000000001E003F8063806180610021001EE7
:1018C000003F8061806180618061003F001E0000F8
:1018D000000000000000001E003F00738061806176
:1018E00080618073803F801D800180610073003FB4
:1018F000001E0000000000000000000000000000CA
:101900000000000C000C00000000000000000000BF
:101910000000000C000C00000000000000000000AF
:101920000000000000000000000C000C000000009F
:10193000000000000000000C000C0004000400087F
:10194000000000000000000080008003000E00384E
:1019500000600038000E80038000000000000000DE
:101960000000000000000000000000000000807F78
:10197000807F00000000807F807F0000000000006A
:101980000000000000000000000000000000000057
:1019900000400070001C000780010007001C007060
:1019A0000040000000000000000000000000001FD8
:1019B000803FC071C060C000C00180030007000EFE
:1019C000000C000C0000000C000C000000000000E7
:1019D0000000001E003F803180718063806F806D49
:1019E000806D806F806700600032003E001C000048
:1019F000000000000000000E000E001B001B001B7A
:101A0000001B80318031803F803F8031C060C060EA
:101A1000C0600000000000000000007C007E006349
:101A2000006300630063007E007E0063806180616C
:101A30008063007F007E0000000000000000001EA8
:101A4000003F8031806100600060006000600060E5
:101A5000006080618031003F001E00000000000037
:101A60000000007C007F0063806380618061806192
:101A700080618061806100630063007E007C000003
:101A8000000000000000807F807F00600060006038
:101A90000060007F007F0060006000600060807F69
:101AA000807F0000000000000000807F807F0060D9
:101AB000006000600060007F007F006000600060E8
:101AC0000060006000600000000000000000001ED8
:101AD000003F80318061006000600060806380634F
:101AE000806180618031803F001E000000000000A6
:101AF0000000806180618061806180618061807FA1
:101B0000807F806180618061806180618061000090
:101B1000000000000000003F003F000C000C000C23
:101B2000000C000C000C000C000C000C000C003F22
:101B3000003F0000000000000000800180018001E3
:101B400080018001800180018001800180618061CD
:101B50008073003F001E0000000000000000C06015
:101B60008061006300660066006C0078007C00669F
:101B70000066006380618061C060000000000000BA
:101B800000000060006000600060006000600060B5
:101B900000600060006000600060807F807F000067
:101BA000000000000000C071C071C07BC07AC06A34
:101BB000C06AC06EC064C060C060C060C060C06009
:101BC000C06000000000000000008071807180791A
:101BD00080798079806D806D806D80658067806799
:101BE0008067806380630000000000000000001E2A
:101BF000003F00338061806180618061806180612D
:101C0000806180610033003F001E00000000000082
:101C10000000007E007F806380618061806180635E
:101C2000007F007E006000600060006000600000D7
:101C3000000000000000001E003F00338061806152
:101C40008061806180618061806580670033803F52
:101C5000401E0000000000000000007E007F806346
:101C6000806180618063007F007E006600630063A6
:101C700080618061C0600000000000000000000E74
:101C8000001F8031803100300038001E00078003C3
:101C9000806180618031003F001E00000000000074
:101CA0000000C0FFC0FF000C000C000C000C000C7A
:101CB000000C000C000C000C000C000C000C0000D0
:101CC00000000000000080618061806180618061AF
:101CD0008061806180618061806180618073003F8C
:101CE000001E0000000000000000C060C060C06076
:101CF000803180318031001B001B001B001B000E57
:101D0000000E000E00040000000000000000C0C033
:101D1000C0C0C0C0C0C0C0C0C0CC804C804C805EC1
:101D2000805280528073806180610000000000005A
:101D30000000C0C0806080610033003B001E000CCA
:101D4000000C001E001F003B80718061C0C00000BD
:101D5000000000000000C0C08061806100330033DB
:101D6000001E001E000C000C000C000C000C000CEF
:101D7000000C0000000000000000803F803F800158
:101D8000000300030006000C000C001800180030CF
:101D90000060807F807F000000000000000F000FC7
:101DA000000C000C000C000C000C000C000C000CD3
:101DB000000C000C000C000C000C000C000F000FBD
:101DC0000000001800180018000C000C000C000C9B
:101DD00000060006000600060003000300030000E2
:101DE00000000000001E001E00060006000600069F
:101DF00000060006000600060006000600060006B3
:101E000000060006001E001E0000000C000C001E54
:101E10000012003300338061806100000000000088
:101E200000000000000000000000000000000000B2
:101E300000000000000000000000000000000000A2
:101E4000000000000000000000000000E0FF0000B3
:101E5000000000380018000C000000000000000026
:101E60000000000000000000000000000000000072
:101E70000000000000000000000000000000001F43
:101E8000803F80618001801F803F80618063807F10
:101E9000C03800000000000000000060006000602A
:101EA0000060006E007F807380618061806180616E
:101EB0008073007F006E0000000000000000000042
:101EC000000000000000001E003F80738061006081
:101ED000006080618073003F001E00000000000071
:101EE00000008001800180018001801D803F80739F
:101EF00080618061806180618073803F801D00000F
:101F00000000000000000000000000000000001EB3
:101F1000003F00738061807F807F00608071003FA0
:101F2000001E0000000000000000C007C00F000CF1
:101F3000000C807F807F000C000C000C000C000C5B
:101F4000000C000C000C000000000000000000006D
:101F500000000000801D803F80738061806180618F
:101F600080618073803F801D80018063007F003E20
:101F700000000060006000600060006F807F807182
:101F8000806180618061806180618061806100002A
:101F90000000000000000006000600000000003EF7
:101FA000003E0006000600060006000600060006C9
:101FB000000600000000000000060006000000000F
:101FC000003E003E00060006000600060006000671
:101FD0000006000600060046007E003C000000608F
:101FE000006000600060806100630066006C007C3F
:101FF0000076006300638061C060000000000000A4
:102000000000003E003E0006000600060006000636
:102010000006000600060006000600060006000096
:10202000000000000000000000000000000080DD53
:10203000C0FFC0CEC0CCC0CCC0CCC0CCC0CCC0CC0B
:10204000C0CC000000000000000000000000000004
:102050000000006F807F807180618061806180619D
:1020600080618061806100000000000000000000CD
:10207000000000000000001E003F8073806180614E
:10208000806180618073003F001E0000000000003E
:102090000000000000000000006E007F807380617F
:1020A0008061806180618073007F006E00600060ED
:1020B000006000600000000000000000801D803F04
:1020C000807380618061806180618073803F801D4A
:1020D00080018001800180010000000000000000FC
:1020E00000000067803F00390030003000300030D1
:1020F0000030003000300000000000000000000050
:10210000000000000000001E803F80610060007F32
:10211000803F80018061007F001E00000000000001
:1021200000000000000800180018007F007F001861
:1021300000180018001800180018801F800F0000F9
:1021400000000000000000000000000000008061AE
:102150008061806180618061806180618063807F57
:10216000803D0000000000000000000000000000B2
:102170000000C060803180318031001B001B001BDB
:10218000000E000E0006000000000000000000002D
:1021900000000000000080DD80DD80DD005500557E
:1021A00000550077007700220022000000000000A8
:1021B00000000000000000000000806100330033D8
:1021C000001E000C000C001E003300338061000074
:1021D000000000000000000000000000806180613D
:1021E000803100330033001B001B001B000E000E6B
:1021F000000E001C007C00700000000000000000C9
:102200000000C07FC07F800100030006000C0018A2
:102210000030C07FC07F0000000000008003800706
:1022200000060006000600060006000E001C001C4A
:10223000000E000600060006000600068007800368
:10224000000600060006000600060006000600065E
:10225000000600060006000600060006000600064E
:10226000000600060038003C000C000C000C000CBE
:10227000000C000E00070007000E000C000C000C04
:10228000000C000C003C00380000000000000000C2
:102290000000000000008038807F00470000000040
:1022A0000000000000000000000000000928B549FF
:1022B00000D9704738B5DFE800F005090D11151990
:1022C0001D21252900F02BF857A022E000F027F867
:1022D00056A01EE000F023F855A01AE000F01FF809
:1022E00054A016E000F01BF853A012E000F017F81D
:1022F00052A00EE000F013F851A00AE000F00FF831
:1023000050A006E000F00BF84FA002E000F007F844
:102310009AA001B0BDE8304000F05DBA31BDD1E90E
:102320000045012321462A4670472DE9F843074618
:102330000C461546D9B2172000F060FA0A2197FB27
:10234000F1F84046FFF7B2FF0A2606FB1877DFF8E0
:1023500034823846FFF7AAFFD8E900010A4688A769
:1023600000F013F894FBF6F94846FFF79FFF06FBD1
:1023700019463046FFF79AFFD8E900010A4600F0F7
:1023800004F82846BDE8F24390E7014601233846A9
:1023900000F021BA7C497D4B0220087000227C4964
:1023A0001A8001207B4B08801A8000207A497B4BE1
:1023B000088001227A491A8008807A4B7A491A806B
:1023C0000A8070477047FEE7FEE7FEE7FEE77047CA
:1023D0007047704700F01CBA38B5744A744D6A4CA7
:1023E0006FF00100106001212846FEF7FBFF28B9BD
:1023F0006C480188012915D1002009E002212846F6
:10240000FEF7F0FF30B96848018801290AD10120A0
:10241000207031BD04212846FEF7E4FF10B9BDE865
:102420003140B7E731BD000030000000310000004E
:1024300032000000330000003400000035000000CE
:102440003600000037000000380000002DE9F84396
:102450005849DFF834C14E4CDFF830914D4E514AA7
:102460004E4FDFF834814E4D4F4B6FF00100086046
:102470009CF8000010B1012827D066E010880128E0
:1024800063D13188E9B9B9F80000002804BF218878
:10249000002906D1308820B9198839B3108001216C
:1024A0003DE008223280208838B93B212180B9F8EC
:1024B0000000421EA9F8002047E02188481E208025
:1024C00043E03288911E31803FE0188801283CD1DA
:1024D0002988002936D1B8F80000002804BF3988BF
:1024E00000291FD12888E8B91188B1B900F0DEF8B9
:1024F0001E21172000F082F9224A0123D2E90001AF
:102500000A4601462DA000F066F900F0DBF8002035
:1025100000F0CCF8FFF73EFF17E0188000218CF8A0
:10252000001012E008222A80388838B93B2139800F
:10253000B8F80000421EA8F8002006E03988481EBE
:10254000388002E02A88911E29801723328821884A
:10255000B9F80000FFF7E9FE2A883988B8F80000CA
:102560002B23FFF7E2FEBDE8F14300F0ABB81248C1
:10257000FDF734BF1048FEF7DEBA00003900000056
:102580003A000000000000201C0000207C04002015
:102590007E040020800400208204002084040020A7
:1025A00086040020180000201A00002010000040BF
:1025B00000080140100400402004002046494E4914
:1025C0005348000001B584B00A20012104AA0290FA
:1025D000019100920123002278218A48FDF72CFE08
:1025E00005B000BD80B5642000F01AF9AE20FFF7F9
:1025F000E9FF2020FFF7E6FF1020FFF7E3FFB02000
:10260000FFF7E0FFC820FFF7DDFF0020FFF7DAFF4C
:102610001020FFF7D7FF4020FFF7D4FF8120FFF7FE
:10262000D1FFFF20FFF7CEFFA120FFF7CBFFA620B1
:10263000FFF7C8FFA820FFF7C5FF3F20FFF7C2FF45
:10264000A420FFF7BFFFD320FFF7BCFF0020FFF758
:10265000B9FFD520FFF7B6FFF020FFF7B3FFD92071
:10266000FFF7B0FF2220FFF7ADFFDA20FFF7AAFF48
:102670001220FFF7A7FFDB20FFF7A4FF2020FFF7C2
:10268000A1FF8D20FFF79EFF1420FFF79BFFAF20D7
:10269000FFF798FF002000F009F800F013F85A48FF
:1026A0000021012301604371012002BD0021574A2E
:1026B00003000CBF0023FF235354491CB1F5806F66
:1026C000F6D370477FB500244E4D504EA4F1500014
:1026D000C0B2FFF777FF0020FFF774FF1020FFF76D
:1026E00071FF6420802106EBC412029001910092D8
:1026F0000123402278212846FDF79EFD641C082C0A
:10270000E4DB7FBD802800DB704770B540290CDA20
:10271000CB083D4D3D4C00EBC3102B7933B13AB1A2
:1027200000F00AF822EA0101215470BD012AF7D114
:1027300000F002F81143F7E78D0801EB5576F60833
:10274000225C0123A1EBC60103FA01F170472DE9D8
:10275000F74F2D4C9DF8041025884A19802ABFBFD9
:102760009DF805806188414440299946A8BF002012
:102770002FDA4FF0000B8DF8000001E00BF1010B98
:102780009DF8050083451ED29DF8001002986688CA
:10279000203908FB01B130F811A000275E449DF8F4
:1027A00004008742EAD278190AFA07F109045FFAAD
:1027B00089F202D4521E9241D20FF1B2C0B2FFF799
:1027C000A1FF7F1CEBE79DF8040045199DF8000070
:1027D0002580BDE8FE8FF8B506460C4615461F4617
:1027E00000E0761C307838B1FBB221462A46FFF76C
:1027F000AEFF31788842F4D03078F2BD024A1080C2
:102800005180704720040020740400202000002024
:1028100002494A68087882184A6070470800002018
:1028200038B50446FEF78CFC14F1010F054602D0C2
:10283000044908780419FEF783FC401BA042FAD330
:1028400031BD00BF080000200901020002D49548F4
:1028500081547047944B02F00F021A4402F8041C92
:10286000704730B500F007000123C0F10704052CC4
:102870002EBF0F2403FA04F4641E051D072D34BF78
:102880000020C01E2140814003FA00F0401E10408D
:10289000084330BD854981B00A6802430A6009686F
:1028A00008400090009801B07047F0B585B000F086
:1028B00023F900F0C6F801A800210022002300241B
:1028C00080E81E007A487B4E01687B4F7B4D41F0CB
:1028D00020010160026802F0200200920099026863
:1028E00042F004020260036803F0040300930099BD
:1028F000026842F0080202600721006800F0080048
:10290000009000986E48019102940121039101A961
:10291000FEF7A8FC6B4A6C486C49426001604FF4BA
:10292000804202618460C46044618461C461046265
:10293000FDF7DCFB1421684600F0F0F80120FFF7FA
:10294000A9FF00F078F801461C20FFF77DFF4FF04B
:102950008051396063224FF448710291ADF8002034
:102960000194039469464FF0804000F0DBF84FF08B
:102970008044206820F080002060A0682840A0608B
:10298000616821F0700161601421A06820F080006E
:10299000A060684600F0C2F80220FFF77BFF00F05D
:1029A0004AF801461D20FFF74FFF4FF000513960F4
:1029B00041F63F72C82100230291ADF80020019337
:1029C00003936946424E304600F0ACF8306820F080
:1029D00080003060B1680D40B560706820F0700014
:1029E0007060B06820F08000B060FFF7FBFD002051
:1029F000FFF75CFE3749384B002008800122374939
:102A00001A8008800022364B36491A800120364B46
:102A100008801A80E06840F00100E060216841F021
:102A200001012160F06840F00100F060316841F080
:102A300001013160FEE7306800220021C0F302206E
:102A40000FE780B529480168C908C900016000681E
:102A50002748016821F0F80141F080010160026817
:102A600042F00102026001688907FCD5426822F049
:102A7000F0024260416821F4E0614160416821F464
:102A8000605141604168890889004160416811F0E6
:102A90000C0FFBD1174800F07BF8BDE80240002086
:102AA00000F07CB800E400E018ED00E01C100240EB
:102AB000181002400CED00E000E100E0F8BFFFFF5D
:102AC00000080140A08601002004002000540040BE
:102AD000000400407C0400207E04002080040020CC
:102AE000820400208404002086040020002002408C
:102AF0000010024000127A0080B50748016841F0DA
:102B0000100101600320FEF79AFC002000F046F857
:102B1000FEF7A4FA002002BD00200240002200F0CF
:102B20005DB8000070B5164E0368174C154DB042E5
:102B300018BFB0F1804F03D0A84218BFA04209D1FE
:102B40004A6823F070031343B0421CBFB0F1804FBA
:102B5000A84201D0A04203D1CA6823F440731343B2
:102B60000360B0428A68C2620A88826202D1097C2C
:102B7000064A1160416941F001014161002070BDC8
:102B8000002C01400004004000080040302C0140AF
:102B900001490860704700001400002038B50D4D51
:102BA0000D4B2A7804464FF47A711868B1FBF2F2A3
:102BB000B0FBF2F0FEF778FC50B9102C08D20022DE
:102BC00021464FF0FF30FEF747FCAC60002032BDDD
:102BD000012032BD080000201400002000B500BF15
:102BE000130096469446103928BFA0E80C50FAD836
:102BF0005FEA417C28BF0CC048BF40F8042BC907DE
:102C000028BF20F8022B48BF00F8012B00BD0000B0
:102C100010B50E4A0E49106840F00100106053686C
:102C20000C480B405360146804401460116821F490
:102C3000802111604FF41F01506820F4FE005060A5
:102C400091604FF00060044A106010BD0010024017
:102C50000000FFF8FFFFF6FE08ED00E010B50749A1
:102C600079441831064C7C44163404E00A68081D87
:102C7000114488470146A142F8D110BD0800000068
:102C8000280000009FE3FFFF6804000020000020F0
:102C900000000000C3E4FFFF20000000540000001B
:102CA000000000200000000000F00DF8002801D016
:102CB000FFF7D4FFAFF300800020AFF30080FFF7F1
:102CC000F4FD00F002F80120704700F001B80000A8
:102CD0000746384600F002F8FBE7000080B5AFF386
:102CE0000080024A11001820ABBEFBE7260002005C
:102CF0000B12000050150008010000000000000049
:102D0000100000000024F400010001000200000097
:102D10000148804701480047112C0008212D000878
:102D2000AFF30080AFF30080FFF7BEFF00000000AC
:102D300001020304FFF7FEBFFFF7FEBFFFF7FEBF70
:102D4000FFF7FEBFFFF7FEBFFFF7FEBFFFF7FEBFB7
:102D5000FFF7FEBFFFF7FEBFFFF7FEBFFFF7FEBFA7
:102D6000FFF7FEBFFFF7FEBFFFF7FEBFFFF7FEBF97
:102D7000FFF7FEBFFFF7FEBFFFF7FEBFFFF7FEBF87
:102D8000FFF7FEBFFFF7FEBFFFF7FEBFFFF7FEBF77
:102D9000FFF7FEBFFFF7FEBFFFF7FEBFFFF7FEBF67
:102DA000FFF7FEBFFFF7FEBFFFF7FEBFFFF7FEBF57
:102DB000FFF7FEBFFFF7FEBFFFF7FEBFFFF7FEBF47
:102DC000FFF7FEBFFFF7FEBFFFF7FEBFFFF7FEBF37
:0400000508002D21A1
:00000001FF
